{
  "_format": "hh-sol-artifact-1",
  "contractName": "Jackpot",
  "sourceName": "contracts/Jackpot.sol",
  "abi": [
    {
      "inputs": [],
      "stateMutability": "nonpayable",
      "type": "constructor"
    },
    {
      "anonymous": false,
      "inputs": [
        {
          "indexed": true,
          "internalType": "address",
          "name": "player",
          "type": "address"
        },
        {
          "indexed": false,
          "internalType": "uint256",
          "name": "newEndTime",
          "type": "uint256"
        },
        {
          "indexed": false,
          "internalType": "uint256",
          "name": "amount",
          "type": "uint256"
        },
        {
          "indexed": false,
          "internalType": "uint256",
          "name": "round",
          "type": "uint256"
        }
      ],
      "name": "Deposit",
      "type": "event"
    },
    {
      "anonymous": false,
      "inputs": [
        {
          "indexed": true,
          "internalType": "address",
          "name": "owner",
          "type": "address"
        },
        {
          "indexed": false,
          "internalType": "uint256",
          "name": "amount",
          "type": "uint256"
        },
        {
          "indexed": false,
          "internalType": "uint256",
          "name": "round",
          "type": "uint256"
        }
      ],
      "name": "FeeCollected",
      "type": "event"
    },
    {
      "anonymous": false,
      "inputs": [
        {
          "indexed": false,
          "internalType": "uint256",
          "name": "oldFee",
          "type": "uint256"
        },
        {
          "indexed": false,
          "internalType": "uint256",
          "name": "newFee",
          "type": "uint256"
        }
      ],
      "name": "FeePercentageUpdated",
      "type": "event"
    },
    {
      "anonymous": false,
      "inputs": [
        {
          "indexed": true,
          "internalType": "address",
          "name": "winner",
          "type": "address"
        },
        {
          "indexed": false,
          "internalType": "uint256",
          "name": "amount",
          "type": "uint256"
        },
        {
          "indexed": false,
          "internalType": "uint256",
          "name": "round",
          "type": "uint256"
        }
      ],
      "name": "PaymentFailed",
      "type": "event"
    },
    {
      "anonymous": false,
      "inputs": [
        {
          "indexed": false,
          "internalType": "uint256",
          "name": "round",
          "type": "uint256"
        },
        {
          "indexed": false,
          "internalType": "address[]",
          "name": "winners",
          "type": "address[]"
        },
        {
          "indexed": false,
          "internalType": "uint256",
          "name": "totalPaid",
          "type": "uint256"
        }
      ],
      "name": "RoundEnded",
      "type": "event"
    },
    {
      "anonymous": false,
      "inputs": [
        {
          "indexed": false,
          "internalType": "uint256",
          "name": "round",
          "type": "uint256"
        },
        {
          "indexed": false,
          "internalType": "uint256",
          "name": "startTime",
          "type": "uint256"
        },
        {
          "indexed": false,
          "internalType": "uint256",
          "name": "endTime",
          "type": "uint256"
        }
      ],
      "name": "RoundStarted",
      "type": "event"
    },
    {
      "anonymous": false,
      "inputs": [
        {
          "indexed": false,
          "internalType": "address[]",
          "name": "winners",
          "type": "address[]"
        },
        {
          "indexed": false,
          "internalType": "uint256",
          "name": "amountPerWinner",
          "type": "uint256"
        },
        {
          "indexed": false,
          "internalType": "uint256",
          "name": "round",
          "type": "uint256"
        }
      ],
      "name": "WinnersPaid",
      "type": "event"
    },
    {
      "anonymous": false,
      "inputs": [
        {
          "indexed": true,
          "internalType": "address",
          "name": "player",
          "type": "address"
        },
        {
          "indexed": false,
          "internalType": "uint256",
          "name": "amount",
          "type": "uint256"
        }
      ],
      "name": "WithdrawalMade",
      "type": "event"
    },
    {
      "inputs": [],
      "name": "DEAD_ZONE_DURATION",
      "outputs": [
        {
          "internalType": "uint256",
          "name": "",
          "type": "uint256"
        }
      ],
      "stateMutability": "view",
      "type": "function"
    },
    {
      "inputs": [],
      "name": "DEAD_ZONE_START",
      "outputs": [
        {
          "internalType": "uint256",
          "name": "",
          "type": "uint256"
        }
      ],
      "stateMutability": "view",
      "type": "function"
    },
    {
      "inputs": [],
      "name": "MAX_DURATION",
      "outputs": [
        {
          "internalType": "uint256",
          "name": "",
          "type": "uint256"
        }
      ],
      "stateMutability": "view",
      "type": "function"
    },
    {
      "inputs": [
        {
          "internalType": "uint256",
          "name": "",
          "type": "uint256"
        }
      ],
      "name": "allTransactions",
      "outputs": [
        {
          "internalType": "address",
          "name": "player",
          "type": "address"
        },
        {
          "internalType": "uint256",
          "name": "amount",
          "type": "uint256"
        },
        {
          "internalType": "uint256",
          "name": "timestamp",
          "type": "uint256"
        },
        {
          "internalType": "uint256",
          "name": "round",
          "type": "uint256"
        }
      ],
      "stateMutability": "view",
      "type": "function"
    },
    {
      "inputs": [],
      "name": "currentRound",
      "outputs": [
        {
          "internalType": "uint256",
          "name": "",
          "type": "uint256"
        }
      ],
      "stateMutability": "view",
      "type": "function"
    },
    {
      "inputs": [],
      "name": "endTime",
      "outputs": [
        {
          "internalType": "uint256",
          "name": "",
          "type": "uint256"
        }
      ],
      "stateMutability": "view",
      "type": "function"
    },
    {
      "inputs": [],
      "name": "feePercentage",
      "outputs": [
        {
          "internalType": "uint256",
          "name": "",
          "type": "uint256"
        }
      ],
      "stateMutability": "view",
      "type": "function"
    },
    {
      "inputs": [],
      "name": "getAllTransactions",
      "outputs": [
        {
          "components": [
            {
              "internalType": "address",
              "name": "player",
              "type": "address"
            },
            {
              "internalType": "uint256",
              "name": "amount",
              "type": "uint256"
            },
            {
              "internalType": "uint256",
              "name": "timestamp",
              "type": "uint256"
            },
            {
              "internalType": "uint256",
              "name": "round",
              "type": "uint256"
            }
          ],
          "internalType": "struct Jackpot.Transaction[]",
          "name": "",
          "type": "tuple[]"
        }
      ],
      "stateMutability": "view",
      "type": "function"
    },
    {
      "inputs": [],
      "name": "getCurrentRoundTransactions",
      "outputs": [
        {
          "components": [
            {
              "internalType": "address",
              "name": "player",
              "type": "address"
            },
            {
              "internalType": "uint256",
              "name": "amount",
              "type": "uint256"
            },
            {
              "internalType": "uint256",
              "name": "timestamp",
              "type": "uint256"
            },
            {
              "internalType": "uint256",
              "name": "round",
              "type": "uint256"
            }
          ],
          "internalType": "struct Jackpot.Transaction[]",
          "name": "",
          "type": "tuple[]"
        }
      ],
      "stateMutability": "view",
      "type": "function"
    },
    {
      "inputs": [],
      "name": "getGameState",
      "outputs": [
        {
          "internalType": "uint256",
          "name": "elapsedTime",
          "type": "uint256"
        },
        {
          "internalType": "address[]",
          "name": "players",
          "type": "address[]"
        },
        {
          "internalType": "uint256",
          "name": "jackpot",
          "type": "uint256"
        },
        {
          "internalType": "uint256",
          "name": "currentEndTime",
          "type": "uint256"
        },
        {
          "internalType": "uint256",
          "name": "round",
          "type": "uint256"
        },
        {
          "internalType": "uint256",
          "name": "currentStartTime",
          "type": "uint256"
        }
      ],
      "stateMutability": "view",
      "type": "function"
    },
    {
      "inputs": [
        {
          "internalType": "address",
          "name": "player",
          "type": "address"
        }
      ],
      "name": "getPendingWithdrawal",
      "outputs": [
        {
          "internalType": "uint256",
          "name": "",
          "type": "uint256"
        }
      ],
      "stateMutability": "view",
      "type": "function"
    },
    {
      "inputs": [
        {
          "internalType": "uint256",
          "name": "",
          "type": "uint256"
        }
      ],
      "name": "last5Players",
      "outputs": [
        {
          "internalType": "address",
          "name": "",
          "type": "address"
        }
      ],
      "stateMutability": "view",
      "type": "function"
    },
    {
      "inputs": [],
      "name": "owner",
      "outputs": [
        {
          "internalType": "address",
          "name": "",
          "type": "address"
        }
      ],
      "stateMutability": "view",
      "type": "function"
    },
    {
      "inputs": [
        {
          "internalType": "address",
          "name": "",
          "type": "address"
        }
      ],
      "name": "pendingWithdrawals",
      "outputs": [
        {
          "internalType": "uint256",
          "name": "",
          "type": "uint256"
        }
      ],
      "stateMutability": "view",
      "type": "function"
    },
    {
      "inputs": [
        {
          "internalType": "uint256",
          "name": "newFeePercentage",
          "type": "uint256"
        }
      ],
      "name": "setFeePercentage",
      "outputs": [],
      "stateMutability": "nonpayable",
      "type": "function"
    },
    {
      "inputs": [],
      "name": "startTime",
      "outputs": [
        {
          "internalType": "uint256",
          "name": "",
          "type": "uint256"
        }
      ],
      "stateMutability": "view",
      "type": "function"
    },
    {
      "inputs": [],
      "name": "triggerPayoutAndRestart",
      "outputs": [],
      "stateMutability": "nonpayable",
      "type": "function"
    },
    {
      "inputs": [],
      "name": "withdraw",
      "outputs": [],
      "stateMutability": "nonpayable",
      "type": "function"
    },
    {
      "stateMutability": "payable",
      "type": "receive"
    }
  ],
  "bytecode": "0x6080604052348015600f57600080fd5b5033600360006101000a81548173ffffffffffffffffffffffffffffffffffffffff021916908373ffffffffffffffffffffffffffffffffffffffff1602179055506103e86004819055506001600281905550600080819055506000600181905550612162806100806000396000f3fe60806040526004361061010d5760003560e01c80637ee8b2f811610095578063ae06c1b711610064578063ae06c1b714610575578063b1724b461461059e578063b7d0628b146105c9578063d7ff0714146105f9578063f3f437031461063957610345565b80637ee8b2f8146104b75780638a19c8bc146104f45780638da5cb5b1461051f578063a001ecdd1461054a57610345565b80633197cbb6116100dc5780633197cbb6146104085780633ccfd60b14610433578063658ec11a1461044a57806378e9792514610461578063793fb4fd1461048c57610345565b8063126312181461034a57806324320a441461037557806327506f53146103a05780632cd16b28146103cb57610345565b366103455760003411610155576040517f08c379a000000000000000000000000000000000000000000000000000000000815260040161014c906117d9565b60405180910390fd5b6000600154036101d557610167610676565b610170336106e4565b61017a333461085f565b3373ffffffffffffffffffffffffffffffffffffffff167f36af321ec8d3c75236829c5317affd40ddb308863a1236d2d277a4025cccee1e600154346002546040516101c893929190611812565b60405180910390a2610343565b60015442111561025d576101e761092e565b6101ef610676565b6101f8336106e4565b610202333461085f565b3373ffffffffffffffffffffffffffffffffffffffff167f36af321ec8d3c75236829c5317affd40ddb308863a1236d2d277a4025cccee1e6001543460025460405161025093929190611812565b60405180910390a2610343565b610266336106e4565b60008054426102759190611878565b905061021c81101580156102965750603c61021c61029391906118ac565b81105b156102e157600061021c826102ab9190611878565b90506000816102586000546102c091906118ac565b6102ca91906118ac565b90506001548111156102de57806001819055505b50505b6102eb333461085f565b3373ffffffffffffffffffffffffffffffffffffffff167f36af321ec8d3c75236829c5317affd40ddb308863a1236d2d277a4025cccee1e6001543460025460405161033993929190611812565b60405180910390a2505b005b600080fd5b34801561035657600080fd5b5061035f610ed8565b60405161036c9190611a34565b60405180910390f35b34801561038157600080fd5b5061038a6110b2565b6040516103979190611a56565b60405180910390f35b3480156103ac57600080fd5b506103b56110b7565b6040516103c29190611a34565b60405180910390f35b3480156103d757600080fd5b506103f260048036038101906103ed9190611aa2565b61118a565b6040516103ff9190611ade565b60405180910390f35b34801561041457600080fd5b5061041d6111c9565b60405161042a9190611a56565b60405180910390f35b34801561043f57600080fd5b506104486111cf565b005b34801561045657600080fd5b5061045f611399565b005b34801561046d57600080fd5b50610476611405565b6040516104839190611a56565b60405180910390f35b34801561049857600080fd5b506104a161140b565b6040516104ae9190611a56565b60405180910390f35b3480156104c357600080fd5b506104de60048036038101906104d99190611b25565b611411565b6040516104eb9190611a56565b60405180910390f35b34801561050057600080fd5b5061050961145a565b6040516105169190611a56565b60405180910390f35b34801561052b57600080fd5b50610534611460565b6040516105419190611ade565b60405180910390f35b34801561055657600080fd5b5061055f611486565b60405161056c9190611a56565b60405180910390f35b34801561058157600080fd5b5061059c60048036038101906105979190611aa2565b61148c565b005b3480156105aa57600080fd5b506105b36115ac565b6040516105c09190611a56565b60405180910390f35b3480156105d557600080fd5b506105de6115b2565b6040516105f096959493929190611c01565b60405180910390f35b34801561060557600080fd5b50610620600480360381019061061b9190611aa2565b611688565b6040516106309493929190611c69565b60405180910390f35b34801561064557600080fd5b50610660600480360381019061065b9190611b25565b6116e8565b60405161066d9190611a56565b60405180910390f35b4260008190555061025860005461068d91906118ac565b600181905550600560006106a19190611700565b7fa359b664a68acd8839e42112eb50eff3408165e15074fde89ddb58a0db2e691d6002546000546001546040516106da93929190611812565b60405180910390a1565b60058080549050106107f95760005b60048110156107b057600560018261070b91906118ac565b8154811061071c5761071b611cae565b5b9060005260206000200160009054906101000a900473ffffffffffffffffffffffffffffffffffffffff166005828154811061075b5761075a611cae565b5b9060005260206000200160006101000a81548173ffffffffffffffffffffffffffffffffffffffff021916908373ffffffffffffffffffffffffffffffffffffffff16021790555080806001019150506106f3565b5060058054806107c3576107c2611cdd565b5b6001900381819060005260206000200160006101000a81549073ffffffffffffffffffffffffffffffffffffffff021916905590555b6005819080600181540180825580915050600190039060005260206000200160009091909190916101000a81548173ffffffffffffffffffffffffffffffffffffffff021916908373ffffffffffffffffffffffffffffffffffffffff16021790555050565b600760405180608001604052808473ffffffffffffffffffffffffffffffffffffffff168152602001838152602001428152602001600254815250908060018154018082558091505060019003906000526020600020906004020160009091909190915060008201518160000160006101000a81548173ffffffffffffffffffffffffffffffffffffffff021916908373ffffffffffffffffffffffffffffffffffffffff16021790555060208201518160010155604082015181600201556060820151816003015550505050565b6000479050600034826109419190611878565b90506000600580549050905060008111801561095d5750600082115b15610ebb576000612710600454846109759190611d0c565b61097f9190611d7d565b90506000818461098f9190611878565b90506000838261099f9190611d7d565b9050600084826109af9190611d0c565b836109ba9190611878565b9050600081856109ca91906118ac565b90506000811115610b5d576000600360009054906101000a900473ffffffffffffffffffffffffffffffffffffffff1673ffffffffffffffffffffffffffffffffffffffff1682604051610a1d90611ddf565b60006040518083038185875af1925050503d8060008114610a5a576040519150601f19603f3d011682016040523d82523d6000602084013e610a5f565b606091505b505090508015610ae257600360009054906101000a900473ffffffffffffffffffffffffffffffffffffffff1673ffffffffffffffffffffffffffffffffffffffff167f108516ddcf5ba43cea6bb2cd5ff6d59ac196c1c86ccb9178332b9dd72d1ca56183600254604051610ad5929190611df4565b60405180910390a2610b5b565b8160066000600360009054906101000a900473ffffffffffffffffffffffffffffffffffffffff1673ffffffffffffffffffffffffffffffffffffffff1673ffffffffffffffffffffffffffffffffffffffff1681526020019081526020016000206000828254610b5391906118ac565b925050819055505b505b60008667ffffffffffffffff811115610b7957610b78611e1d565b5b604051908082528060200260200182016040528015610ba75781602001602082028036833780820191505090505b5090506000805b88811015610e385760058181548110610bca57610bc9611cae565b5b9060005260206000200160009054906101000a900473ffffffffffffffffffffffffffffffffffffffff16838281518110610c0857610c07611cae565b5b602002602001019073ffffffffffffffffffffffffffffffffffffffff16908173ffffffffffffffffffffffffffffffffffffffff1681525050600060058281548110610c5857610c57611cae565b5b9060005260206000200160009054906101000a900473ffffffffffffffffffffffffffffffffffffffff1673ffffffffffffffffffffffffffffffffffffffff1687604051610ca690611ddf565b60006040518083038185875af1925050503d8060008114610ce3576040519150601f19603f3d011682016040523d82523d6000602084013e610ce8565b606091505b505090508015610d05578683610cfe91906118ac565b9250610e2a565b866006600060058581548110610d1e57610d1d611cae565b5b9060005260206000200160009054906101000a900473ffffffffffffffffffffffffffffffffffffffff1673ffffffffffffffffffffffffffffffffffffffff1673ffffffffffffffffffffffffffffffffffffffff1681526020019081526020016000206000828254610d9291906118ac565b9250508190555060058281548110610dad57610dac611cae565b5b9060005260206000200160009054906101000a900473ffffffffffffffffffffffffffffffffffffffff1673ffffffffffffffffffffffffffffffffffffffff167f7aae1d64354f89d76ddcbadb1e9fef2fa6fa3e7a3372265010642b4de8dc1d9188600254604051610e21929190611df4565b60405180910390a25b508080600101915050610bae565b507f8e3ec98b9615a9bd8e08e5d4563502a274b1c35c02fb12b1e71ad210a81261c98286600254604051610e6e93929190611e4c565b60405180910390a17f4f04ba2738cd9c9e5569739b68d757b711485d983221905b2d53cbe4ec4552c56002548383604051610eab93929190611e8a565b60405180910390a1505050505050505b60026000815480929190610ece90611ec8565b9190505550505050565b60606000805b600780549050811015610f355760025460078281548110610f0257610f01611cae565b5b90600052602060002090600402016003015403610f28578180610f2490611ec8565b9250505b8080600101915050610ede565b5060008167ffffffffffffffff811115610f5257610f51611e1d565b5b604051908082528060200260200182016040528015610f8b57816020015b610f78611721565b815260200190600190039081610f705790505b5090506000805b6007805490508110156110a85760025460078281548110610fb657610fb5611cae565b5b9060005260206000209060040201600301540361109b5760078181548110610fe157610fe0611cae565b5b90600052602060002090600402016040518060800160405290816000820160009054906101000a900473ffffffffffffffffffffffffffffffffffffffff1673ffffffffffffffffffffffffffffffffffffffff1673ffffffffffffffffffffffffffffffffffffffff168152602001600182015481526020016002820154815260200160038201548152505083838151811061108157611080611cae565b5b6020026020010181905250818061109790611ec8565b9250505b8080600101915050610f92565b5081935050505090565b603c81565b60606007805480602002602001604051908101604052809291908181526020016000905b8282101561118157838290600052602060002090600402016040518060800160405290816000820160009054906101000a900473ffffffffffffffffffffffffffffffffffffffff1673ffffffffffffffffffffffffffffffffffffffff1673ffffffffffffffffffffffffffffffffffffffff1681526020016001820154815260200160028201548152602001600382015481525050815260200190600101906110db565b50505050905090565b6005818154811061119a57600080fd5b906000526020600020016000915054906101000a900473ffffffffffffffffffffffffffffffffffffffff1681565b60015481565b6000600660003373ffffffffffffffffffffffffffffffffffffffff1673ffffffffffffffffffffffffffffffffffffffff16815260200190815260200160002054905060008111611256576040517f08c379a000000000000000000000000000000000000000000000000000000000815260040161124d90611f5c565b60405180910390fd5b6000600660003373ffffffffffffffffffffffffffffffffffffffff1673ffffffffffffffffffffffffffffffffffffffff1681526020019081526020016000208190555060003373ffffffffffffffffffffffffffffffffffffffff16826040516112c190611ddf565b60006040518083038185875af1925050503d80600081146112fe576040519150601f19603f3d011682016040523d82523d6000602084013e611303565b606091505b5050905080611347576040517f08c379a000000000000000000000000000000000000000000000000000000000815260040161133e90611fc8565b60405180910390fd5b3373ffffffffffffffffffffffffffffffffffffffff167fbc158bb64f05d6383aea69bbb0b20c1bbf4b7a18f63359c5649b7c39e29d38848360405161138d9190611a56565b60405180910390a25050565b600154421180156113ad5750600060015414155b6113ec576040517f08c379a00000000000000000000000000000000000000000000000000000000081526004016113e390612034565b60405180910390fd5b6113f461092e565b600060018190555060008081905550565b60005481565b61021c81565b6000600660008373ffffffffffffffffffffffffffffffffffffffff1673ffffffffffffffffffffffffffffffffffffffff168152602001908152602001600020549050919050565b60025481565b600360009054906101000a900473ffffffffffffffffffffffffffffffffffffffff1681565b60045481565b600360009054906101000a900473ffffffffffffffffffffffffffffffffffffffff1673ffffffffffffffffffffffffffffffffffffffff163373ffffffffffffffffffffffffffffffffffffffff161461151c576040517f08c379a0000000000000000000000000000000000000000000000000000000008152600401611513906120a0565b60405180910390fd5b6107d0811115611561576040517f08c379a00000000000000000000000000000000000000000000000000000000081526004016115589061210c565b60405180910390fd5b60006004549050816004819055507fb27c12a91635e11c22bffa7bd8e0a8735da52b94aaefd7f249776c7590ba789481836040516115a0929190611df4565b60405180910390a15050565b61025881565b6000606060008060008060008054036115ce57600095506115df565b600054426115dc9190611878565b95505b856005476001546002546000548480548060200260200160405190810160405280929190818152602001828054801561166d57602002820191906000526020600020905b8160009054906101000a900473ffffffffffffffffffffffffffffffffffffffff1673ffffffffffffffffffffffffffffffffffffffff1681526020019060010190808311611623575b50505050509450955095509550955095509550909192939495565b6007818154811061169857600080fd5b90600052602060002090600402016000915090508060000160009054906101000a900473ffffffffffffffffffffffffffffffffffffffff16908060010154908060020154908060030154905084565b60066020528060005260406000206000915090505481565b508054600082559060005260206000209081019061171e919061175f565b50565b6040518060800160405280600073ffffffffffffffffffffffffffffffffffffffff1681526020016000815260200160008152602001600081525090565b5b80821115611778576000816000905550600101611760565b5090565b600082825260208201905092915050565b7f4d7573742073656e642045544800000000000000000000000000000000000000600082015250565b60006117c3600d8361177c565b91506117ce8261178d565b602082019050919050565b600060208201905081810360008301526117f2816117b6565b9050919050565b6000819050919050565b61180c816117f9565b82525050565b60006060820190506118276000830186611803565b6118346020830185611803565b6118416040830184611803565b949350505050565b7f4e487b7100000000000000000000000000000000000000000000000000000000600052601160045260246000fd5b6000611883826117f9565b915061188e836117f9565b92508282039050818111156118a6576118a5611849565b5b92915050565b60006118b7826117f9565b91506118c2836117f9565b92508282019050808211156118da576118d9611849565b5b92915050565b600081519050919050565b600082825260208201905092915050565b6000819050602082019050919050565b600073ffffffffffffffffffffffffffffffffffffffff82169050919050565b60006119378261190c565b9050919050565b6119478161192c565b82525050565b611956816117f9565b82525050565b608082016000820151611972600085018261193e565b506020820151611985602085018261194d565b506040820151611998604085018261194d565b5060608201516119ab606085018261194d565b50505050565b60006119bd838361195c565b60808301905092915050565b6000602082019050919050565b60006119e1826118e0565b6119eb81856118eb565b93506119f6836118fc565b8060005b83811015611a27578151611a0e88826119b1565b9750611a19836119c9565b9250506001810190506119fa565b5085935050505092915050565b60006020820190508181036000830152611a4e81846119d6565b905092915050565b6000602082019050611a6b6000830184611803565b92915050565b600080fd5b611a7f816117f9565b8114611a8a57600080fd5b50565b600081359050611a9c81611a76565b92915050565b600060208284031215611ab857611ab7611a71565b5b6000611ac684828501611a8d565b91505092915050565b611ad88161192c565b82525050565b6000602082019050611af36000830184611acf565b92915050565b611b028161192c565b8114611b0d57600080fd5b50565b600081359050611b1f81611af9565b92915050565b600060208284031215611b3b57611b3a611a71565b5b6000611b4984828501611b10565b91505092915050565b600081519050919050565b600082825260208201905092915050565b6000819050602082019050919050565b6000611b8a838361193e565b60208301905092915050565b6000602082019050919050565b6000611bae82611b52565b611bb88185611b5d565b9350611bc383611b6e565b8060005b83811015611bf4578151611bdb8882611b7e565b9750611be683611b96565b925050600181019050611bc7565b5085935050505092915050565b600060c082019050611c166000830189611803565b8181036020830152611c288188611ba3565b9050611c376040830187611803565b611c446060830186611803565b611c516080830185611803565b611c5e60a0830184611803565b979650505050505050565b6000608082019050611c7e6000830187611acf565b611c8b6020830186611803565b611c986040830185611803565b611ca56060830184611803565b95945050505050565b7f4e487b7100000000000000000000000000000000000000000000000000000000600052603260045260246000fd5b7f4e487b7100000000000000000000000000000000000000000000000000000000600052603160045260246000fd5b6000611d17826117f9565b9150611d22836117f9565b9250828202611d30816117f9565b91508282048414831517611d4757611d46611849565b5b5092915050565b7f4e487b7100000000000000000000000000000000000000000000000000000000600052601260045260246000fd5b6000611d88826117f9565b9150611d93836117f9565b925082611da357611da2611d4e565b5b828204905092915050565b600081905092915050565b50565b6000611dc9600083611dae565b9150611dd482611db9565b600082019050919050565b6000611dea82611dbc565b9150819050919050565b6000604082019050611e096000830185611803565b611e166020830184611803565b9392505050565b7f4e487b7100000000000000000000000000000000000000000000000000000000600052604160045260246000fd5b60006060820190508181036000830152611e668186611ba3565b9050611e756020830185611803565b611e826040830184611803565b949350505050565b6000606082019050611e9f6000830186611803565b8181036020830152611eb18185611ba3565b9050611ec06040830184611803565b949350505050565b6000611ed3826117f9565b91507fffffffffffffffffffffffffffffffffffffffffffffffffffffffffffffffff8203611f0557611f04611849565b5b600182019050919050565b7f4e6f2070656e64696e67207769746864726177616c7300000000000000000000600082015250565b6000611f4660168361177c565b9150611f5182611f10565b602082019050919050565b60006020820190508181036000830152611f7581611f39565b9050919050565b7f5769746864726177616c206661696c6564000000000000000000000000000000600082015250565b6000611fb260118361177c565b9150611fbd82611f7c565b602082019050919050565b60006020820190508181036000830152611fe181611fa5565b9050919050565b7f526f756e64206e6f7420656e646564206f72206e6f7420616374697665000000600082015250565b600061201e601d8361177c565b915061202982611fe8565b602082019050919050565b6000602082019050818103600083015261204d81612011565b9050919050565b7f4f6e6c79206f776e65722063616e2063616c6c20746869730000000000000000600082015250565b600061208a60188361177c565b915061209582612054565b602082019050919050565b600060208201905081810360008301526120b98161207d565b9050919050565b7f4665652063616e6e6f7420657863656564203230250000000000000000000000600082015250565b60006120f660158361177c565b9150612101826120c0565b602082019050919050565b60006020820190508181036000830152612125816120e9565b905091905056fea2646970667358221220c7fd2e28185d8dca54d93acc34c66892745bf5ea0ddd3c934302a8fcf4f6767c64736f6c634300081b0033",
  "linkReferences": {},
  "deployedLinkReferences": {}
}