{
  "_format": "hh-sol-artifact-1",
  "contractName": "Jackpot",
  "sourceName": "contracts/Jackpot.sol",
  "abi": [
    {
      "inputs": [],
      "stateMutability": "nonpayable",
      "type": "constructor"
    },
    {
      "anonymous": false,
      "inputs": [
        {
          "indexed": true,
          "internalType": "address",
          "name": "player",
          "type": "address"
        },
        {
          "indexed": false,
          "internalType": "uint256",
          "name": "newEndTime",
          "type": "uint256"
        },
        {
          "indexed": false,
          "internalType": "uint256",
          "name": "amount",
          "type": "uint256"
        },
        {
          "indexed": false,
          "internalType": "uint256",
          "name": "round",
          "type": "uint256"
        }
      ],
      "name": "Deposit",
      "type": "event"
    },
    {
      "anonymous": false,
      "inputs": [
        {
          "indexed": true,
          "internalType": "address",
          "name": "owner",
          "type": "address"
        },
        {
          "indexed": false,
          "internalType": "uint256",
          "name": "amount",
          "type": "uint256"
        },
        {
          "indexed": false,
          "internalType": "uint256",
          "name": "round",
          "type": "uint256"
        }
      ],
      "name": "FeeCollected",
      "type": "event"
    },
    {
      "anonymous": false,
      "inputs": [
        {
          "indexed": false,
          "internalType": "uint256",
          "name": "oldFee",
          "type": "uint256"
        },
        {
          "indexed": false,
          "internalType": "uint256",
          "name": "newFee",
          "type": "uint256"
        }
      ],
      "name": "FeePercentageUpdated",
      "type": "event"
    },
    {
      "anonymous": false,
      "inputs": [
        {
          "indexed": true,
          "internalType": "address",
          "name": "winner",
          "type": "address"
        },
        {
          "indexed": false,
          "internalType": "uint256",
          "name": "amount",
          "type": "uint256"
        },
        {
          "indexed": false,
          "internalType": "uint256",
          "name": "round",
          "type": "uint256"
        }
      ],
      "name": "PaymentFailed",
      "type": "event"
    },
    {
      "anonymous": false,
      "inputs": [
        {
          "indexed": false,
          "internalType": "uint256",
          "name": "round",
          "type": "uint256"
        },
        {
          "indexed": false,
          "internalType": "address[]",
          "name": "winners",
          "type": "address[]"
        },
        {
          "indexed": false,
          "internalType": "uint256",
          "name": "totalPaid",
          "type": "uint256"
        }
      ],
      "name": "RoundEnded",
      "type": "event"
    },
    {
      "anonymous": false,
      "inputs": [
        {
          "indexed": false,
          "internalType": "uint256",
          "name": "round",
          "type": "uint256"
        },
        {
          "indexed": false,
          "internalType": "uint256",
          "name": "startTime",
          "type": "uint256"
        },
        {
          "indexed": false,
          "internalType": "uint256",
          "name": "endTime",
          "type": "uint256"
        }
      ],
      "name": "RoundStarted",
      "type": "event"
    },
    {
      "anonymous": false,
      "inputs": [
        {
          "indexed": false,
          "internalType": "address[]",
          "name": "winners",
          "type": "address[]"
        },
        {
          "indexed": false,
          "internalType": "uint256",
          "name": "amountPerWinner",
          "type": "uint256"
        },
        {
          "indexed": false,
          "internalType": "uint256",
          "name": "round",
          "type": "uint256"
        }
      ],
      "name": "WinnersPaid",
      "type": "event"
    },
    {
      "anonymous": false,
      "inputs": [
        {
          "indexed": true,
          "internalType": "address",
          "name": "player",
          "type": "address"
        },
        {
          "indexed": false,
          "internalType": "uint256",
          "name": "amount",
          "type": "uint256"
        }
      ],
      "name": "WithdrawalMade",
      "type": "event"
    },
    {
      "inputs": [],
      "name": "EXTENSION_STEP",
      "outputs": [
        {
          "internalType": "uint256",
          "name": "",
          "type": "uint256"
        }
      ],
      "stateMutability": "view",
      "type": "function"
    },
    {
      "inputs": [],
      "name": "EXTENSION_ZONE_START",
      "outputs": [
        {
          "internalType": "uint256",
          "name": "",
          "type": "uint256"
        }
      ],
      "stateMutability": "view",
      "type": "function"
    },
    {
      "inputs": [],
      "name": "MAX_DURATION",
      "outputs": [
        {
          "internalType": "uint256",
          "name": "",
          "type": "uint256"
        }
      ],
      "stateMutability": "view",
      "type": "function"
    },
    {
      "inputs": [
        {
          "internalType": "uint256",
          "name": "",
          "type": "uint256"
        }
      ],
      "name": "allTransactions",
      "outputs": [
        {
          "internalType": "address",
          "name": "player",
          "type": "address"
        },
        {
          "internalType": "uint256",
          "name": "amount",
          "type": "uint256"
        },
        {
          "internalType": "uint256",
          "name": "timestamp",
          "type": "uint256"
        },
        {
          "internalType": "uint256",
          "name": "round",
          "type": "uint256"
        }
      ],
      "stateMutability": "view",
      "type": "function"
    },
    {
      "inputs": [],
      "name": "currentRound",
      "outputs": [
        {
          "internalType": "uint256",
          "name": "",
          "type": "uint256"
        }
      ],
      "stateMutability": "view",
      "type": "function"
    },
    {
      "inputs": [],
      "name": "deadZoneDepositCount",
      "outputs": [
        {
          "internalType": "uint256",
          "name": "",
          "type": "uint256"
        }
      ],
      "stateMutability": "view",
      "type": "function"
    },
    {
      "inputs": [],
      "name": "endTime",
      "outputs": [
        {
          "internalType": "uint256",
          "name": "",
          "type": "uint256"
        }
      ],
      "stateMutability": "view",
      "type": "function"
    },
    {
      "inputs": [],
      "name": "feePercentage",
      "outputs": [
        {
          "internalType": "uint256",
          "name": "",
          "type": "uint256"
        }
      ],
      "stateMutability": "view",
      "type": "function"
    },
    {
      "inputs": [],
      "name": "getAllTransactions",
      "outputs": [
        {
          "components": [
            {
              "internalType": "address",
              "name": "player",
              "type": "address"
            },
            {
              "internalType": "uint256",
              "name": "amount",
              "type": "uint256"
            },
            {
              "internalType": "uint256",
              "name": "timestamp",
              "type": "uint256"
            },
            {
              "internalType": "uint256",
              "name": "round",
              "type": "uint256"
            }
          ],
          "internalType": "struct Jackpot.Transaction[]",
          "name": "",
          "type": "tuple[]"
        }
      ],
      "stateMutability": "view",
      "type": "function"
    },
    {
      "inputs": [],
      "name": "getCurrentRoundTransactions",
      "outputs": [
        {
          "components": [
            {
              "internalType": "address",
              "name": "player",
              "type": "address"
            },
            {
              "internalType": "uint256",
              "name": "amount",
              "type": "uint256"
            },
            {
              "internalType": "uint256",
              "name": "timestamp",
              "type": "uint256"
            },
            {
              "internalType": "uint256",
              "name": "round",
              "type": "uint256"
            }
          ],
          "internalType": "struct Jackpot.Transaction[]",
          "name": "",
          "type": "tuple[]"
        }
      ],
      "stateMutability": "view",
      "type": "function"
    },
    {
      "inputs": [],
      "name": "getGameState",
      "outputs": [
        {
          "internalType": "uint256",
          "name": "elapsedTime",
          "type": "uint256"
        },
        {
          "internalType": "address[]",
          "name": "players",
          "type": "address[]"
        },
        {
          "internalType": "uint256",
          "name": "jackpot",
          "type": "uint256"
        },
        {
          "internalType": "uint256",
          "name": "currentEndTime",
          "type": "uint256"
        },
        {
          "internalType": "uint256",
          "name": "round",
          "type": "uint256"
        }
      ],
      "stateMutability": "view",
      "type": "function"
    },
    {
      "inputs": [
        {
          "internalType": "address",
          "name": "player",
          "type": "address"
        }
      ],
      "name": "getPendingWithdrawal",
      "outputs": [
        {
          "internalType": "uint256",
          "name": "",
          "type": "uint256"
        }
      ],
      "stateMutability": "view",
      "type": "function"
    },
    {
      "inputs": [
        {
          "internalType": "uint256",
          "name": "",
          "type": "uint256"
        }
      ],
      "name": "last5Players",
      "outputs": [
        {
          "internalType": "address",
          "name": "",
          "type": "address"
        }
      ],
      "stateMutability": "view",
      "type": "function"
    },
    {
      "inputs": [],
      "name": "owner",
      "outputs": [
        {
          "internalType": "address",
          "name": "",
          "type": "address"
        }
      ],
      "stateMutability": "view",
      "type": "function"
    },
    {
      "inputs": [
        {
          "internalType": "address",
          "name": "",
          "type": "address"
        }
      ],
      "name": "pendingWithdrawals",
      "outputs": [
        {
          "internalType": "uint256",
          "name": "",
          "type": "uint256"
        }
      ],
      "stateMutability": "view",
      "type": "function"
    },
    {
      "inputs": [
        {
          "internalType": "uint256",
          "name": "newFeePercentage",
          "type": "uint256"
        }
      ],
      "name": "setFeePercentage",
      "outputs": [],
      "stateMutability": "nonpayable",
      "type": "function"
    },
    {
      "inputs": [],
      "name": "startTime",
      "outputs": [
        {
          "internalType": "uint256",
          "name": "",
          "type": "uint256"
        }
      ],
      "stateMutability": "view",
      "type": "function"
    },
    {
      "inputs": [],
      "name": "triggerPayoutAndRestart",
      "outputs": [],
      "stateMutability": "nonpayable",
      "type": "function"
    },
    {
      "inputs": [],
      "name": "withdraw",
      "outputs": [],
      "stateMutability": "nonpayable",
      "type": "function"
    },
    {
      "stateMutability": "payable",
      "type": "receive"
    }
  ],
  "bytecode": "0x6080604052348015600f57600080fd5b5033600460006101000a81548173ffffffffffffffffffffffffffffffffffffffff021916908373ffffffffffffffffffffffffffffffffffffffff1602179055506103e860058190555060016002819055506000808190555060006001819055506121cb806100806000396000f3fe6080604052600436106101185760003560e01c80637ed68f13116100a0578063ae06c1b711610064578063ae06c1b7146105d1578063b1724b46146105fa578063b7d0628b14610625578063d7ff071414610654578063f3f437031461069457610376565b80637ed68f13146104e85780637ee8b2f8146105135780638a19c8bc146105505780638da5cb5b1461057b578063a001ecdd146105a657610376565b80633197cbb6116100e75780633197cbb6146104395780633ccfd60b146104645780634f5aadf01461047b578063658ec11a146104a657806378e97925146104bd57610376565b8063126312181461037b5780631bfb5bcf146103a657806327506f53146103d15780632cd16b28146103fc57610376565b366103765760003411610160576040517f08c379a000000000000000000000000000000000000000000000000000000000815260040161015790611850565b60405180910390fd5b6000600154036101e0576101726106d1565b61017b33610747565b61018533346108c3565b3373ffffffffffffffffffffffffffffffffffffffff167f36af321ec8d3c75236829c5317affd40ddb308863a1236d2d277a4025cccee1e600154346002546040516101d393929190611889565b60405180910390a2610374565b600154421115610268576101f2610992565b6101fa6106d1565b61020333610747565b61020d33346108c3565b3373ffffffffffffffffffffffffffffffffffffffff167f36af321ec8d3c75236829c5317affd40ddb308863a1236d2d277a4025cccee1e6001543460025460405161025b93929190611889565b60405180910390a2610374565b61027133610747565b600080544261028091906118ef565b905061021c8110610312576003600081548092919061029e90611923565b91905055506000600380546102b3919061196b565b61021c6102c091906119ad565b90506102588110156102f95780426102d891906118ef565b6000819055506102586000546102ee91906119ad565b600181905550610310565b61025860005461030991906119ad565b6001819055505b505b61031c33346108c3565b3373ffffffffffffffffffffffffffffffffffffffff167f36af321ec8d3c75236829c5317affd40ddb308863a1236d2d277a4025cccee1e6001543460025460405161036a93929190611889565b60405180910390a2505b005b600080fd5b34801561038757600080fd5b50610390610f3c565b60405161039d9190611b35565b60405180910390f35b3480156103b257600080fd5b506103bb611116565b6040516103c89190611b57565b60405180910390f35b3480156103dd57600080fd5b506103e661111c565b6040516103f39190611b35565b60405180910390f35b34801561040857600080fd5b50610423600480360381019061041e9190611ba3565b6111ef565b6040516104309190611bdf565b60405180910390f35b34801561044557600080fd5b5061044e61122e565b60405161045b9190611b57565b60405180910390f35b34801561047057600080fd5b50610479611234565b005b34801561048757600080fd5b506104906113fe565b60405161049d9190611b57565b60405180910390f35b3480156104b257600080fd5b506104bb611403565b005b3480156104c957600080fd5b506104d261146f565b6040516104df9190611b57565b60405180910390f35b3480156104f457600080fd5b506104fd611475565b60405161050a9190611b57565b60405180910390f35b34801561051f57600080fd5b5061053a60048036038101906105359190611c26565b61147b565b6040516105479190611b57565b60405180910390f35b34801561055c57600080fd5b506105656114c4565b6040516105729190611b57565b60405180910390f35b34801561058757600080fd5b506105906114ca565b60405161059d9190611bdf565b60405180910390f35b3480156105b257600080fd5b506105bb6114f0565b6040516105c89190611b57565b60405180910390f35b3480156105dd57600080fd5b506105f860048036038101906105f39190611ba3565b6114f6565b005b34801561060657600080fd5b5061060f611616565b60405161061c9190611b57565b60405180910390f35b34801561063157600080fd5b5061063a61161c565b60405161064b959493929190611d02565b60405180910390f35b34801561066057600080fd5b5061067b60048036038101906106769190611ba3565b6116ff565b60405161068b9493929190611d5c565b60405180910390f35b3480156106a057600080fd5b506106bb60048036038101906106b69190611c26565b61175f565b6040516106c89190611b57565b60405180910390f35b426000819055506102586000546106e891906119ad565b6001819055506000600381905550600660006107049190611777565b7fa359b664a68acd8839e42112eb50eff3408165e15074fde89ddb58a0db2e691d60025460005460015460405161073d93929190611889565b60405180910390a1565b60056006805490501061085d5760005b600481101561081457600660018261076f91906119ad565b815481106107805761077f611da1565b5b9060005260206000200160009054906101000a900473ffffffffffffffffffffffffffffffffffffffff16600682815481106107bf576107be611da1565b5b9060005260206000200160006101000a81548173ffffffffffffffffffffffffffffffffffffffff021916908373ffffffffffffffffffffffffffffffffffffffff1602179055508080600101915050610757565b50600680548061082757610826611dd0565b5b6001900381819060005260206000200160006101000a81549073ffffffffffffffffffffffffffffffffffffffff021916905590555b6006819080600181540180825580915050600190039060005260206000200160009091909190916101000a81548173ffffffffffffffffffffffffffffffffffffffff021916908373ffffffffffffffffffffffffffffffffffffffff16021790555050565b600860405180608001604052808473ffffffffffffffffffffffffffffffffffffffff168152602001838152602001428152602001600254815250908060018154018082558091505060019003906000526020600020906004020160009091909190915060008201518160000160006101000a81548173ffffffffffffffffffffffffffffffffffffffff021916908373ffffffffffffffffffffffffffffffffffffffff16021790555060208201518160010155604082015181600201556060820151816003015550505050565b6000479050600034826109a591906118ef565b9050600060068054905090506000811180156109c15750600082115b15610f1f576000612710600554846109d9919061196b565b6109e39190611e2e565b9050600081846109f391906118ef565b905060008382610a039190611e2e565b905060008482610a13919061196b565b83610a1e91906118ef565b905060008185610a2e91906119ad565b90506000811115610bc1576000600460009054906101000a900473ffffffffffffffffffffffffffffffffffffffff1673ffffffffffffffffffffffffffffffffffffffff1682604051610a8190611e90565b60006040518083038185875af1925050503d8060008114610abe576040519150601f19603f3d011682016040523d82523d6000602084013e610ac3565b606091505b505090508015610b4657600460009054906101000a900473ffffffffffffffffffffffffffffffffffffffff1673ffffffffffffffffffffffffffffffffffffffff167f108516ddcf5ba43cea6bb2cd5ff6d59ac196c1c86ccb9178332b9dd72d1ca56183600254604051610b39929190611ea5565b60405180910390a2610bbf565b8160076000600460009054906101000a900473ffffffffffffffffffffffffffffffffffffffff1673ffffffffffffffffffffffffffffffffffffffff1673ffffffffffffffffffffffffffffffffffffffff1681526020019081526020016000206000828254610bb791906119ad565b925050819055505b505b60008667ffffffffffffffff811115610bdd57610bdc611ece565b5b604051908082528060200260200182016040528015610c0b5781602001602082028036833780820191505090505b5090506000805b88811015610e9c5760068181548110610c2e57610c2d611da1565b5b9060005260206000200160009054906101000a900473ffffffffffffffffffffffffffffffffffffffff16838281518110610c6c57610c6b611da1565b5b602002602001019073ffffffffffffffffffffffffffffffffffffffff16908173ffffffffffffffffffffffffffffffffffffffff1681525050600060068281548110610cbc57610cbb611da1565b5b9060005260206000200160009054906101000a900473ffffffffffffffffffffffffffffffffffffffff1673ffffffffffffffffffffffffffffffffffffffff1687604051610d0a90611e90565b60006040518083038185875af1925050503d8060008114610d47576040519150601f19603f3d011682016040523d82523d6000602084013e610d4c565b606091505b505090508015610d69578683610d6291906119ad565b9250610e8e565b866007600060068581548110610d8257610d81611da1565b5b9060005260206000200160009054906101000a900473ffffffffffffffffffffffffffffffffffffffff1673ffffffffffffffffffffffffffffffffffffffff1673ffffffffffffffffffffffffffffffffffffffff1681526020019081526020016000206000828254610df691906119ad565b9250508190555060068281548110610e1157610e10611da1565b5b9060005260206000200160009054906101000a900473ffffffffffffffffffffffffffffffffffffffff1673ffffffffffffffffffffffffffffffffffffffff167f7aae1d64354f89d76ddcbadb1e9fef2fa6fa3e7a3372265010642b4de8dc1d9188600254604051610e85929190611ea5565b60405180910390a25b508080600101915050610c12565b507f8e3ec98b9615a9bd8e08e5d4563502a274b1c35c02fb12b1e71ad210a81261c98286600254604051610ed293929190611efd565b60405180910390a17f4f04ba2738cd9c9e5569739b68d757b711485d983221905b2d53cbe4ec4552c56002548383604051610f0f93929190611f3b565b60405180910390a1505050505050505b60026000815480929190610f3290611923565b9190505550505050565b60606000805b600880549050811015610f995760025460088281548110610f6657610f65611da1565b5b90600052602060002090600402016003015403610f8c578180610f8890611923565b9250505b8080600101915050610f42565b5060008167ffffffffffffffff811115610fb657610fb5611ece565b5b604051908082528060200260200182016040528015610fef57816020015b610fdc611798565b815260200190600190039081610fd45790505b5090506000805b60088054905081101561110c576002546008828154811061101a57611019611da1565b5b906000526020600020906004020160030154036110ff576008818154811061104557611044611da1565b5b90600052602060002090600402016040518060800160405290816000820160009054906101000a900473ffffffffffffffffffffffffffffffffffffffff1673ffffffffffffffffffffffffffffffffffffffff1673ffffffffffffffffffffffffffffffffffffffff16815260200160018201548152602001600282015481526020016003820154815250508383815181106110e5576110e4611da1565b5b602002602001018190525081806110fb90611923565b9250505b8080600101915050610ff6565b5081935050505090565b60035481565b60606008805480602002602001604051908101604052809291908181526020016000905b828210156111e657838290600052602060002090600402016040518060800160405290816000820160009054906101000a900473ffffffffffffffffffffffffffffffffffffffff1673ffffffffffffffffffffffffffffffffffffffff1673ffffffffffffffffffffffffffffffffffffffff168152602001600182015481526020016002820154815260200160038201548152505081526020019060010190611140565b50505050905090565b600681815481106111ff57600080fd5b906000526020600020016000915054906101000a900473ffffffffffffffffffffffffffffffffffffffff1681565b60015481565b6000600760003373ffffffffffffffffffffffffffffffffffffffff1673ffffffffffffffffffffffffffffffffffffffff168152602001908152602001600020549050600081116112bb576040517f08c379a00000000000000000000000000000000000000000000000000000000081526004016112b290611fc5565b60405180910390fd5b6000600760003373ffffffffffffffffffffffffffffffffffffffff1673ffffffffffffffffffffffffffffffffffffffff1681526020019081526020016000208190555060003373ffffffffffffffffffffffffffffffffffffffff168260405161132690611e90565b60006040518083038185875af1925050503d8060008114611363576040519150601f19603f3d011682016040523d82523d6000602084013e611368565b606091505b50509050806113ac576040517f08c379a00000000000000000000000000000000000000000000000000000000081526004016113a390612031565b60405180910390fd5b3373ffffffffffffffffffffffffffffffffffffffff167fbc158bb64f05d6383aea69bbb0b20c1bbf4b7a18f63359c5649b7c39e29d3884836040516113f29190611b57565b60405180910390a25050565b600381565b600154421180156114175750600060015414155b611456576040517f08c379a000000000000000000000000000000000000000000000000000000000815260040161144d9061209d565b60405180910390fd5b61145e610992565b600060018190555060008081905550565b60005481565b61021c81565b6000600760008373ffffffffffffffffffffffffffffffffffffffff1673ffffffffffffffffffffffffffffffffffffffff168152602001908152602001600020549050919050565b60025481565b600460009054906101000a900473ffffffffffffffffffffffffffffffffffffffff1681565b60055481565b600460009054906101000a900473ffffffffffffffffffffffffffffffffffffffff1673ffffffffffffffffffffffffffffffffffffffff163373ffffffffffffffffffffffffffffffffffffffff1614611586576040517f08c379a000000000000000000000000000000000000000000000000000000000815260040161157d90612109565b60405180910390fd5b6107d08111156115cb576040517f08c379a00000000000000000000000000000000000000000000000000000000081526004016115c290612175565b60405180910390fd5b60006005549050816005819055507fb27c12a91635e11c22bffa7bd8e0a8735da52b94aaefd7f249776c7590ba7894818360405161160a929190611ea5565b60405180910390a15050565b61025881565b6000606060008060008060015403611637576000945061165c565b600154421061164a57610258945061165b565b6000544261165891906118ef565b94505b5b84600647600154600254838054806020026020016040519081016040528092919081815260200182805480156116e757602002820191906000526020600020905b8160009054906101000a900473ffffffffffffffffffffffffffffffffffffffff1673ffffffffffffffffffffffffffffffffffffffff168152602001906001019080831161169d575b50505050509350945094509450945094509091929394565b6008818154811061170f57600080fd5b90600052602060002090600402016000915090508060000160009054906101000a900473ffffffffffffffffffffffffffffffffffffffff16908060010154908060020154908060030154905084565b60076020528060005260406000206000915090505481565b508054600082559060005260206000209081019061179591906117d6565b50565b6040518060800160405280600073ffffffffffffffffffffffffffffffffffffffff1681526020016000815260200160008152602001600081525090565b5b808211156117ef5760008160009055506001016117d7565b5090565b600082825260208201905092915050565b7f4d7573742073656e642045544800000000000000000000000000000000000000600082015250565b600061183a600d836117f3565b915061184582611804565b602082019050919050565b600060208201905081810360008301526118698161182d565b9050919050565b6000819050919050565b61188381611870565b82525050565b600060608201905061189e600083018661187a565b6118ab602083018561187a565b6118b8604083018461187a565b949350505050565b7f4e487b7100000000000000000000000000000000000000000000000000000000600052601160045260246000fd5b60006118fa82611870565b915061190583611870565b925082820390508181111561191d5761191c6118c0565b5b92915050565b600061192e82611870565b91507fffffffffffffffffffffffffffffffffffffffffffffffffffffffffffffffff82036119605761195f6118c0565b5b600182019050919050565b600061197682611870565b915061198183611870565b925082820261198f81611870565b915082820484148315176119a6576119a56118c0565b5b5092915050565b60006119b882611870565b91506119c383611870565b92508282019050808211156119db576119da6118c0565b5b92915050565b600081519050919050565b600082825260208201905092915050565b6000819050602082019050919050565b600073ffffffffffffffffffffffffffffffffffffffff82169050919050565b6000611a3882611a0d565b9050919050565b611a4881611a2d565b82525050565b611a5781611870565b82525050565b608082016000820151611a736000850182611a3f565b506020820151611a866020850182611a4e565b506040820151611a996040850182611a4e565b506060820151611aac6060850182611a4e565b50505050565b6000611abe8383611a5d565b60808301905092915050565b6000602082019050919050565b6000611ae2826119e1565b611aec81856119ec565b9350611af7836119fd565b8060005b83811015611b28578151611b0f8882611ab2565b9750611b1a83611aca565b925050600181019050611afb565b5085935050505092915050565b60006020820190508181036000830152611b4f8184611ad7565b905092915050565b6000602082019050611b6c600083018461187a565b92915050565b600080fd5b611b8081611870565b8114611b8b57600080fd5b50565b600081359050611b9d81611b77565b92915050565b600060208284031215611bb957611bb8611b72565b5b6000611bc784828501611b8e565b91505092915050565b611bd981611a2d565b82525050565b6000602082019050611bf46000830184611bd0565b92915050565b611c0381611a2d565b8114611c0e57600080fd5b50565b600081359050611c2081611bfa565b92915050565b600060208284031215611c3c57611c3b611b72565b5b6000611c4a84828501611c11565b91505092915050565b600081519050919050565b600082825260208201905092915050565b6000819050602082019050919050565b6000611c8b8383611a3f565b60208301905092915050565b6000602082019050919050565b6000611caf82611c53565b611cb98185611c5e565b9350611cc483611c6f565b8060005b83811015611cf5578151611cdc8882611c7f565b9750611ce783611c97565b925050600181019050611cc8565b5085935050505092915050565b600060a082019050611d17600083018861187a565b8181036020830152611d298187611ca4565b9050611d38604083018661187a565b611d45606083018561187a565b611d52608083018461187a565b9695505050505050565b6000608082019050611d716000830187611bd0565b611d7e602083018661187a565b611d8b604083018561187a565b611d98606083018461187a565b95945050505050565b7f4e487b7100000000000000000000000000000000000000000000000000000000600052603260045260246000fd5b7f4e487b7100000000000000000000000000000000000000000000000000000000600052603160045260246000fd5b7f4e487b7100000000000000000000000000000000000000000000000000000000600052601260045260246000fd5b6000611e3982611870565b9150611e4483611870565b925082611e5457611e53611dff565b5b828204905092915050565b600081905092915050565b50565b6000611e7a600083611e5f565b9150611e8582611e6a565b600082019050919050565b6000611e9b82611e6d565b9150819050919050565b6000604082019050611eba600083018561187a565b611ec7602083018461187a565b9392505050565b7f4e487b7100000000000000000000000000000000000000000000000000000000600052604160045260246000fd5b60006060820190508181036000830152611f178186611ca4565b9050611f26602083018561187a565b611f33604083018461187a565b949350505050565b6000606082019050611f50600083018661187a565b8181036020830152611f628185611ca4565b9050611f71604083018461187a565b949350505050565b7f4e6f2070656e64696e67207769746864726177616c7300000000000000000000600082015250565b6000611faf6016836117f3565b9150611fba82611f79565b602082019050919050565b60006020820190508181036000830152611fde81611fa2565b9050919050565b7f5769746864726177616c206661696c6564000000000000000000000000000000600082015250565b600061201b6011836117f3565b915061202682611fe5565b602082019050919050565b6000602082019050818103600083015261204a8161200e565b9050919050565b7f526f756e64206e6f7420656e646564206f72206e6f7420616374697665000000600082015250565b6000612087601d836117f3565b915061209282612051565b602082019050919050565b600060208201905081810360008301526120b68161207a565b9050919050565b7f4f6e6c79206f776e65722063616e2063616c6c20746869730000000000000000600082015250565b60006120f36018836117f3565b91506120fe826120bd565b602082019050919050565b60006020820190508181036000830152612122816120e6565b9050919050565b7f4665652063616e6e6f7420657863656564203230250000000000000000000000600082015250565b600061215f6015836117f3565b915061216a82612129565b602082019050919050565b6000602082019050818103600083015261218e81612152565b905091905056fea264697066735822122091854032d32e5c29ac329bc647be0c7d84759205c1ddc9dd2f1934a3ee75767b64736f6c634300081b0033",
  "linkReferences": {},
  "deployedLinkReferences": {}
}