{
  "_format": "hh-sol-artifact-1",
  "contractName": "Jackpot",
  "sourceName": "contracts/Jackpot.sol",
  "abi": [
    {
      "inputs": [],
      "stateMutability": "nonpayable",
      "type": "constructor"
    },
    {
      "anonymous": false,
      "inputs": [
        {
          "indexed": true,
          "internalType": "address",
          "name": "oldToken",
          "type": "address"
        },
        {
          "indexed": true,
          "internalType": "address",
          "name": "newToken",
          "type": "address"
        }
      ],
      "name": "AcceptedTokenUpdated",
      "type": "event"
    },
    {
      "anonymous": false,
      "inputs": [
        {
          "indexed": true,
          "internalType": "address",
          "name": "player",
          "type": "address"
        },
        {
          "indexed": false,
          "internalType": "uint256",
          "name": "newEndTime",
          "type": "uint256"
        },
        {
          "indexed": false,
          "internalType": "uint256",
          "name": "amount",
          "type": "uint256"
        },
        {
          "indexed": false,
          "internalType": "uint256",
          "name": "round",
          "type": "uint256"
        }
      ],
      "name": "Deposit",
      "type": "event"
    },
    {
      "anonymous": false,
      "inputs": [
        {
          "indexed": true,
          "internalType": "address",
          "name": "sender",
          "type": "address"
        },
        {
          "indexed": false,
          "internalType": "uint256",
          "name": "amount",
          "type": "uint256"
        },
        {
          "indexed": false,
          "internalType": "string",
          "name": "reason",
          "type": "string"
        }
      ],
      "name": "DepositRejected",
      "type": "event"
    },
    {
      "anonymous": false,
      "inputs": [
        {
          "indexed": true,
          "internalType": "address",
          "name": "owner",
          "type": "address"
        },
        {
          "indexed": false,
          "internalType": "uint256",
          "name": "amount",
          "type": "uint256"
        },
        {
          "indexed": false,
          "internalType": "uint256",
          "name": "round",
          "type": "uint256"
        }
      ],
      "name": "FeeCollected",
      "type": "event"
    },
    {
      "anonymous": false,
      "inputs": [
        {
          "indexed": false,
          "internalType": "uint256",
          "name": "oldFee",
          "type": "uint256"
        },
        {
          "indexed": false,
          "internalType": "uint256",
          "name": "newFee",
          "type": "uint256"
        }
      ],
      "name": "FeePercentageUpdated",
      "type": "event"
    },
    {
      "anonymous": false,
      "inputs": [
        {
          "indexed": false,
          "internalType": "uint256",
          "name": "oldMinimum",
          "type": "uint256"
        },
        {
          "indexed": false,
          "internalType": "uint256",
          "name": "newMinimum",
          "type": "uint256"
        }
      ],
      "name": "MinimumDepositUpdated",
      "type": "event"
    },
    {
      "anonymous": false,
      "inputs": [
        {
          "indexed": true,
          "internalType": "address",
          "name": "winner",
          "type": "address"
        },
        {
          "indexed": false,
          "internalType": "uint256",
          "name": "amount",
          "type": "uint256"
        },
        {
          "indexed": false,
          "internalType": "uint256",
          "name": "round",
          "type": "uint256"
        }
      ],
      "name": "PaymentFailed",
      "type": "event"
    },
    {
      "anonymous": false,
      "inputs": [
        {
          "indexed": false,
          "internalType": "uint256",
          "name": "round",
          "type": "uint256"
        },
        {
          "indexed": false,
          "internalType": "address[]",
          "name": "winners",
          "type": "address[]"
        },
        {
          "indexed": false,
          "internalType": "uint256",
          "name": "totalPaid",
          "type": "uint256"
        }
      ],
      "name": "RoundEnded",
      "type": "event"
    },
    {
      "anonymous": false,
      "inputs": [
        {
          "indexed": false,
          "internalType": "uint256",
          "name": "round",
          "type": "uint256"
        },
        {
          "indexed": false,
          "internalType": "uint256",
          "name": "startTime",
          "type": "uint256"
        },
        {
          "indexed": false,
          "internalType": "uint256",
          "name": "endTime",
          "type": "uint256"
        }
      ],
      "name": "RoundStarted",
      "type": "event"
    },
    {
      "anonymous": false,
      "inputs": [
        {
          "indexed": false,
          "internalType": "address[]",
          "name": "winners",
          "type": "address[]"
        },
        {
          "indexed": false,
          "internalType": "uint256",
          "name": "amountPerWinner",
          "type": "uint256"
        },
        {
          "indexed": false,
          "internalType": "uint256",
          "name": "round",
          "type": "uint256"
        }
      ],
      "name": "WinnersPaid",
      "type": "event"
    },
    {
      "anonymous": false,
      "inputs": [
        {
          "indexed": true,
          "internalType": "address",
          "name": "player",
          "type": "address"
        },
        {
          "indexed": false,
          "internalType": "uint256",
          "name": "amount",
          "type": "uint256"
        }
      ],
      "name": "WithdrawalMade",
      "type": "event"
    },
    {
      "inputs": [],
      "name": "EXTENSION_STEP",
      "outputs": [
        {
          "internalType": "uint256",
          "name": "",
          "type": "uint256"
        }
      ],
      "stateMutability": "view",
      "type": "function"
    },
    {
      "inputs": [],
      "name": "EXTENSION_ZONE_START",
      "outputs": [
        {
          "internalType": "uint256",
          "name": "",
          "type": "uint256"
        }
      ],
      "stateMutability": "view",
      "type": "function"
    },
    {
      "inputs": [],
      "name": "MAX_DURATION",
      "outputs": [
        {
          "internalType": "uint256",
          "name": "",
          "type": "uint256"
        }
      ],
      "stateMutability": "view",
      "type": "function"
    },
    {
      "inputs": [],
      "name": "acceptedToken",
      "outputs": [
        {
          "internalType": "address",
          "name": "",
          "type": "address"
        }
      ],
      "stateMutability": "view",
      "type": "function"
    },
    {
      "inputs": [
        {
          "internalType": "uint256",
          "name": "",
          "type": "uint256"
        }
      ],
      "name": "allTransactions",
      "outputs": [
        {
          "internalType": "address",
          "name": "player",
          "type": "address"
        },
        {
          "internalType": "uint256",
          "name": "amount",
          "type": "uint256"
        },
        {
          "internalType": "uint256",
          "name": "timestamp",
          "type": "uint256"
        },
        {
          "internalType": "uint256",
          "name": "round",
          "type": "uint256"
        }
      ],
      "stateMutability": "view",
      "type": "function"
    },
    {
      "inputs": [],
      "name": "currentRound",
      "outputs": [
        {
          "internalType": "uint256",
          "name": "",
          "type": "uint256"
        }
      ],
      "stateMutability": "view",
      "type": "function"
    },
    {
      "inputs": [],
      "name": "deadZoneDepositCount",
      "outputs": [
        {
          "internalType": "uint256",
          "name": "",
          "type": "uint256"
        }
      ],
      "stateMutability": "view",
      "type": "function"
    },
    {
      "inputs": [
        {
          "internalType": "uint256",
          "name": "amount",
          "type": "uint256"
        }
      ],
      "name": "depositToken",
      "outputs": [],
      "stateMutability": "nonpayable",
      "type": "function"
    },
    {
      "inputs": [],
      "name": "endTime",
      "outputs": [
        {
          "internalType": "uint256",
          "name": "",
          "type": "uint256"
        }
      ],
      "stateMutability": "view",
      "type": "function"
    },
    {
      "inputs": [],
      "name": "feePercentage",
      "outputs": [
        {
          "internalType": "uint256",
          "name": "",
          "type": "uint256"
        }
      ],
      "stateMutability": "view",
      "type": "function"
    },
    {
      "inputs": [],
      "name": "getAllTransactions",
      "outputs": [
        {
          "components": [
            {
              "internalType": "address",
              "name": "player",
              "type": "address"
            },
            {
              "internalType": "uint256",
              "name": "amount",
              "type": "uint256"
            },
            {
              "internalType": "uint256",
              "name": "timestamp",
              "type": "uint256"
            },
            {
              "internalType": "uint256",
              "name": "round",
              "type": "uint256"
            }
          ],
          "internalType": "struct Jackpot.Transaction[]",
          "name": "",
          "type": "tuple[]"
        }
      ],
      "stateMutability": "view",
      "type": "function"
    },
    {
      "inputs": [],
      "name": "getCurrentRoundTransactions",
      "outputs": [
        {
          "components": [
            {
              "internalType": "address",
              "name": "player",
              "type": "address"
            },
            {
              "internalType": "uint256",
              "name": "amount",
              "type": "uint256"
            },
            {
              "internalType": "uint256",
              "name": "timestamp",
              "type": "uint256"
            },
            {
              "internalType": "uint256",
              "name": "round",
              "type": "uint256"
            }
          ],
          "internalType": "struct Jackpot.Transaction[]",
          "name": "",
          "type": "tuple[]"
        }
      ],
      "stateMutability": "view",
      "type": "function"
    },
    {
      "inputs": [],
      "name": "getGameState",
      "outputs": [
        {
          "internalType": "uint256",
          "name": "elapsedTime",
          "type": "uint256"
        },
        {
          "internalType": "address[]",
          "name": "players",
          "type": "address[]"
        },
        {
          "internalType": "uint256",
          "name": "jackpot",
          "type": "uint256"
        },
        {
          "internalType": "uint256",
          "name": "currentEndTime",
          "type": "uint256"
        },
        {
          "internalType": "uint256",
          "name": "round",
          "type": "uint256"
        }
      ],
      "stateMutability": "view",
      "type": "function"
    },
    {
      "inputs": [
        {
          "internalType": "address",
          "name": "player",
          "type": "address"
        }
      ],
      "name": "getPendingWithdrawal",
      "outputs": [
        {
          "internalType": "uint256",
          "name": "",
          "type": "uint256"
        }
      ],
      "stateMutability": "view",
      "type": "function"
    },
    {
      "inputs": [
        {
          "internalType": "uint256",
          "name": "",
          "type": "uint256"
        }
      ],
      "name": "last5Players",
      "outputs": [
        {
          "internalType": "address",
          "name": "",
          "type": "address"
        }
      ],
      "stateMutability": "view",
      "type": "function"
    },
    {
      "inputs": [],
      "name": "minimumDeposit",
      "outputs": [
        {
          "internalType": "uint256",
          "name": "",
          "type": "uint256"
        }
      ],
      "stateMutability": "view",
      "type": "function"
    },
    {
      "inputs": [],
      "name": "owner",
      "outputs": [
        {
          "internalType": "address",
          "name": "",
          "type": "address"
        }
      ],
      "stateMutability": "view",
      "type": "function"
    },
    {
      "inputs": [
        {
          "internalType": "address",
          "name": "",
          "type": "address"
        }
      ],
      "name": "pendingWithdrawals",
      "outputs": [
        {
          "internalType": "uint256",
          "name": "",
          "type": "uint256"
        }
      ],
      "stateMutability": "view",
      "type": "function"
    },
    {
      "inputs": [
        {
          "internalType": "address",
          "name": "token",
          "type": "address"
        }
      ],
      "name": "setAcceptedToken",
      "outputs": [],
      "stateMutability": "nonpayable",
      "type": "function"
    },
    {
      "inputs": [
        {
          "internalType": "uint256",
          "name": "newFeePercentage",
          "type": "uint256"
        }
      ],
      "name": "setFeePercentage",
      "outputs": [],
      "stateMutability": "nonpayable",
      "type": "function"
    },
    {
      "inputs": [
        {
          "internalType": "uint256",
          "name": "amount",
          "type": "uint256"
        }
      ],
      "name": "setMinimumDeposit",
      "outputs": [],
      "stateMutability": "nonpayable",
      "type": "function"
    },
    {
      "inputs": [],
      "name": "startTime",
      "outputs": [
        {
          "internalType": "uint256",
          "name": "",
          "type": "uint256"
        }
      ],
      "stateMutability": "view",
      "type": "function"
    },
    {
      "inputs": [],
      "name": "triggerPayoutAndRestart",
      "outputs": [],
      "stateMutability": "nonpayable",
      "type": "function"
    },
    {
      "inputs": [],
      "name": "withdraw",
      "outputs": [],
      "stateMutability": "nonpayable",
      "type": "function"
    },
    {
      "stateMutability": "payable",
      "type": "receive"
    }
  ],
  "bytecode": "0x6080604052348015600f57600080fd5b5033600460006101000a81548173ffffffffffffffffffffffffffffffffffffffff021916908373ffffffffffffffffffffffffffffffffffffffff1602179055506103e860058190555060016002819055506000808190555060006001819055506000600660006101000a81548173ffffffffffffffffffffffffffffffffffffffff021916908373ffffffffffffffffffffffffffffffffffffffff16021790555066038d7ea4c68000600781905550612d59806100d06000396000f3fe60806040526004361061014f5760003560e01c806378e97925116100b6578063ae06c1b71161006f578063ae06c1b71461074b578063b1724b4614610774578063b7d0628b1461079f578063d7ff0714146107ce578063e78ec42e1461080e578063f3f437031461083757610448565b806378e97925146106375780637ed68f13146106625780637ee8b2f81461068d5780638a19c8bc146106ca5780638da5cb5b146106f5578063a001ecdd1461072057610448565b8063451c3d8011610108578063451c3d801461054d5780634f5aadf0146105785780636215be77146105a3578063636bfbab146105cc578063658ec11a146105f75780637487f5281461060e57610448565b8063126312181461044d5780631bfb5bcf1461047857806327506f53146104a35780632cd16b28146104ce5780633197cbb61461050b5780633ccfd60b1461053657610448565b366104485760003411610197576040517f08c379a000000000000000000000000000000000000000000000000000000000815260040161018e9061210a565b60405180910390fd5b600073ffffffffffffffffffffffffffffffffffffffff16600660009054906101000a900473ffffffffffffffffffffffffffffffffffffffff1673ffffffffffffffffffffffffffffffffffffffff161461030f573373ffffffffffffffffffffffffffffffffffffffff167ff7b92d49e48bee1761c5c4921258f40f73b59701069b3e06b96ff746f87db60034604051610233919061218f565b60405180910390a26000600460009054906101000a900473ffffffffffffffffffffffffffffffffffffffff1673ffffffffffffffffffffffffffffffffffffffff1634604051610283906121ee565b60006040518083038185875af1925050503d80600081146102c0576040519150601f19603f3d011682016040523d82523d6000602084013e6102c5565b606091505b5050905080610309576040517f08c379a00000000000000000000000000000000000000000000000000000000081526004016103009061224f565b60405180910390fd5b50610446565b60075434101561043b573373ffffffffffffffffffffffffffffffffffffffff167ff7b92d49e48bee1761c5c4921258f40f73b59701069b3e06b96ff746f87db6003460405161035f91906122bb565b60405180910390a26000600460009054906101000a900473ffffffffffffffffffffffffffffffffffffffff1673ffffffffffffffffffffffffffffffffffffffff16346040516103af906121ee565b60006040518083038185875af1925050503d80600081146103ec576040519150601f19603f3d011682016040523d82523d6000602084013e6103f1565b606091505b5050905080610435576040517f08c379a000000000000000000000000000000000000000000000000000000000815260040161042c9061224f565b60405180910390fd5b50610446565b6104453334610874565b5b005b600080fd5b34801561045957600080fd5b50610462610a8c565b60405161046f919061243d565b60405180910390f35b34801561048457600080fd5b5061048d610c66565b60405161049a919061245f565b60405180910390f35b3480156104af57600080fd5b506104b8610c6c565b6040516104c5919061243d565b60405180910390f35b3480156104da57600080fd5b506104f560048036038101906104f091906124ab565b610d3f565b60405161050291906124e7565b60405180910390f35b34801561051757600080fd5b50610520610d7e565b60405161052d919061245f565b60405180910390f35b34801561054257600080fd5b5061054b610d84565b005b34801561055957600080fd5b50610562610f4e565b60405161056f91906124e7565b60405180910390f35b34801561058457600080fd5b5061058d610f74565b60405161059a919061245f565b60405180910390f35b3480156105af57600080fd5b506105ca60048036038101906105c591906124ab565b610f79565b005b3480156105d857600080fd5b506105e161121b565b6040516105ee919061245f565b60405180910390f35b34801561060357600080fd5b5061060c611221565b005b34801561061a57600080fd5b506106356004803603810190610630919061252e565b61128d565b005b34801561064357600080fd5b5061064c6113e3565b604051610659919061245f565b60405180910390f35b34801561066e57600080fd5b506106776113e9565b604051610684919061245f565b60405180910390f35b34801561069957600080fd5b506106b460048036038101906106af919061252e565b6113ef565b6040516106c1919061245f565b60405180910390f35b3480156106d657600080fd5b506106df611438565b6040516106ec919061245f565b60405180910390f35b34801561070157600080fd5b5061070a61143e565b60405161071791906124e7565b60405180910390f35b34801561072c57600080fd5b50610735611464565b604051610742919061245f565b60405180910390f35b34801561075757600080fd5b50610772600480360381019061076d91906124ab565b61146a565b005b34801561078057600080fd5b5061078961158a565b604051610796919061245f565b60405180910390f35b3480156107ab57600080fd5b506107b4611590565b6040516107c595949392919061260a565b60405180910390f35b3480156107da57600080fd5b506107f560048036038101906107f091906124ab565b611673565b6040516108059493929190612664565b60405180910390f35b34801561081a57600080fd5b50610835600480360381019061083091906124ab565b6116d3565b005b34801561084357600080fd5b5061085e6004803603810190610859919061252e565b6117ae565b60405161086b919061245f565b60405180910390f35b6000600154036108f4576108866117c6565b61088f8261183c565b61089982826119b8565b8173ffffffffffffffffffffffffffffffffffffffff167f36af321ec8d3c75236829c5317affd40ddb308863a1236d2d277a4025cccee1e600154836002546040516108e7939291906126a9565b60405180910390a2610a88565b60015442111561097c57610906611a87565b61090e6117c6565b6109178261183c565b61092182826119b8565b8173ffffffffffffffffffffffffffffffffffffffff167f36af321ec8d3c75236829c5317affd40ddb308863a1236d2d277a4025cccee1e6001548360025460405161096f939291906126a9565b60405180910390a2610a88565b6109858261183c565b6000805442610994919061270f565b905061021c8110610a2657600360008154809291906109b290612743565b91905055506000600380546109c7919061278b565b61021c6109d491906127cd565b9050610258811015610a0d5780426109ec919061270f565b600081905550610258600054610a0291906127cd565b600181905550610a24565b610258600054610a1d91906127cd565b6001819055505b505b610a3083836119b8565b8273ffffffffffffffffffffffffffffffffffffffff167f36af321ec8d3c75236829c5317affd40ddb308863a1236d2d277a4025cccee1e60015484600254604051610a7e939291906126a9565b60405180910390a2505b5050565b60606000805b600a80549050811015610ae957600254600a8281548110610ab657610ab5612801565b5b90600052602060002090600402016003015403610adc578180610ad890612743565b9250505b8080600101915050610a92565b5060008167ffffffffffffffff811115610b0657610b05612830565b5b604051908082528060200260200182016040528015610b3f57816020015b610b2c612031565b815260200190600190039081610b245790505b5090506000805b600a80549050811015610c5c57600254600a8281548110610b6a57610b69612801565b5b90600052602060002090600402016003015403610c4f57600a8181548110610b9557610b94612801565b5b90600052602060002090600402016040518060800160405290816000820160009054906101000a900473ffffffffffffffffffffffffffffffffffffffff1673ffffffffffffffffffffffffffffffffffffffff1673ffffffffffffffffffffffffffffffffffffffff1681526020016001820154815260200160028201548152602001600382015481525050838381518110610c3557610c34612801565b5b60200260200101819052508180610c4b90612743565b9250505b8080600101915050610b46565b5081935050505090565b60035481565b6060600a805480602002602001604051908101604052809291908181526020016000905b82821015610d3657838290600052602060002090600402016040518060800160405290816000820160009054906101000a900473ffffffffffffffffffffffffffffffffffffffff1673ffffffffffffffffffffffffffffffffffffffff1673ffffffffffffffffffffffffffffffffffffffff168152602001600182015481526020016002820154815260200160038201548152505081526020019060010190610c90565b50505050905090565b60088181548110610d4f57600080fd5b906000526020600020016000915054906101000a900473ffffffffffffffffffffffffffffffffffffffff1681565b60015481565b6000600960003373ffffffffffffffffffffffffffffffffffffffff1673ffffffffffffffffffffffffffffffffffffffff16815260200190815260200160002054905060008111610e0b576040517f08c379a0000000000000000000000000000000000000000000000000000000008152600401610e02906128ab565b60405180910390fd5b6000600960003373ffffffffffffffffffffffffffffffffffffffff1673ffffffffffffffffffffffffffffffffffffffff1681526020019081526020016000208190555060003373ffffffffffffffffffffffffffffffffffffffff1682604051610e76906121ee565b60006040518083038185875af1925050503d8060008114610eb3576040519150601f19603f3d011682016040523d82523d6000602084013e610eb8565b606091505b5050905080610efc576040517f08c379a0000000000000000000000000000000000000000000000000000000008152600401610ef390612917565b60405180910390fd5b3373ffffffffffffffffffffffffffffffffffffffff167fbc158bb64f05d6383aea69bbb0b20c1bbf4b7a18f63359c5649b7c39e29d388483604051610f42919061245f565b60405180910390a25050565b600660009054906101000a900473ffffffffffffffffffffffffffffffffffffffff1681565b600381565b600073ffffffffffffffffffffffffffffffffffffffff16600660009054906101000a900473ffffffffffffffffffffffffffffffffffffffff1673ffffffffffffffffffffffffffffffffffffffff160361100a576040517f08c379a000000000000000000000000000000000000000000000000000000000815260040161100190612983565b60405180910390fd5b60075481101561112c573373ffffffffffffffffffffffffffffffffffffffff167ff7b92d49e48bee1761c5c4921258f40f73b59701069b3e06b96ff746f87db6008260405161105a91906122bb565b60405180910390a2600660009054906101000a900473ffffffffffffffffffffffffffffffffffffffff1673ffffffffffffffffffffffffffffffffffffffff166323b872dd33600460009054906101000a900473ffffffffffffffffffffffffffffffffffffffff16846040518463ffffffff1660e01b81526004016110e3939291906129a3565b6020604051808303816000875af1158015611102573d6000803e3d6000fd5b505050506040513d601f19601f820116820180604052508101906111269190612a12565b50611218565b600660009054906101000a900473ffffffffffffffffffffffffffffffffffffffff1673ffffffffffffffffffffffffffffffffffffffff166323b872dd3330846040518463ffffffff1660e01b815260040161118b939291906129a3565b6020604051808303816000875af11580156111aa573d6000803e3d6000fd5b505050506040513d601f19601f820116820180604052508101906111ce9190612a12565b61120d576040517f08c379a000000000000000000000000000000000000000000000000000000000815260040161120490612a8b565b60405180910390fd5b6112173382610874565b5b50565b60075481565b600154421180156112355750600060015414155b611274576040517f08c379a000000000000000000000000000000000000000000000000000000000815260040161126b90612af7565b60405180910390fd5b61127c611a87565b600060018190555060008081905550565b600460009054906101000a900473ffffffffffffffffffffffffffffffffffffffff1673ffffffffffffffffffffffffffffffffffffffff163373ffffffffffffffffffffffffffffffffffffffff161461131d576040517f08c379a000000000000000000000000000000000000000000000000000000000815260040161131490612b63565b60405180910390fd5b6000600660009054906101000a900473ffffffffffffffffffffffffffffffffffffffff16905081600660006101000a81548173ffffffffffffffffffffffffffffffffffffffff021916908373ffffffffffffffffffffffffffffffffffffffff1602179055508173ffffffffffffffffffffffffffffffffffffffff168173ffffffffffffffffffffffffffffffffffffffff167f6634be9d1ec7048ba777c301fdd1228ce889dc30b7fd9bdfc8c752622296afb360405160405180910390a35050565b60005481565b61021c81565b6000600960008373ffffffffffffffffffffffffffffffffffffffff1673ffffffffffffffffffffffffffffffffffffffff168152602001908152602001600020549050919050565b60025481565b600460009054906101000a900473ffffffffffffffffffffffffffffffffffffffff1681565b60055481565b600460009054906101000a900473ffffffffffffffffffffffffffffffffffffffff1673ffffffffffffffffffffffffffffffffffffffff163373ffffffffffffffffffffffffffffffffffffffff16146114fa576040517f08c379a00000000000000000000000000000000000000000000000000000000081526004016114f190612b63565b60405180910390fd5b6107d081111561153f576040517f08c379a000000000000000000000000000000000000000000000000000000000815260040161153690612bcf565b60405180910390fd5b60006005549050816005819055507fb27c12a91635e11c22bffa7bd8e0a8735da52b94aaefd7f249776c7590ba7894818360405161157e929190612bef565b60405180910390a15050565b61025881565b60006060600080600080600154036115ab57600094506115d0565b60015442106115be5761025894506115cf565b600054426115cc919061270f565b94505b5b846008476001546002548380548060200260200160405190810160405280929190818152602001828054801561165b57602002820191906000526020600020905b8160009054906101000a900473ffffffffffffffffffffffffffffffffffffffff1673ffffffffffffffffffffffffffffffffffffffff1681526020019060010190808311611611575b50505050509350945094509450945094509091929394565b600a818154811061168357600080fd5b90600052602060002090600402016000915090508060000160009054906101000a900473ffffffffffffffffffffffffffffffffffffffff16908060010154908060020154908060030154905084565b600460009054906101000a900473ffffffffffffffffffffffffffffffffffffffff1673ffffffffffffffffffffffffffffffffffffffff163373ffffffffffffffffffffffffffffffffffffffff1614611763576040517f08c379a000000000000000000000000000000000000000000000000000000000815260040161175a90612b63565b60405180910390fd5b60006007549050816007819055507fd57ead9c8a193c1304fa3b2dbce005f9d606b36ca1e3e540da0ef96ac8098cf281836040516117a2929190612bef565b60405180910390a15050565b60096020528060005260406000206000915090505481565b426000819055506102586000546117dd91906127cd565b6001819055506000600381905550600860006117f9919061206f565b7fa359b664a68acd8839e42112eb50eff3408165e15074fde89ddb58a0db2e691d600254600054600154604051611832939291906126a9565b60405180910390a1565b6005600880549050106119525760005b600481101561190957600860018261186491906127cd565b8154811061187557611874612801565b5b9060005260206000200160009054906101000a900473ffffffffffffffffffffffffffffffffffffffff16600882815481106118b4576118b3612801565b5b9060005260206000200160006101000a81548173ffffffffffffffffffffffffffffffffffffffff021916908373ffffffffffffffffffffffffffffffffffffffff160217905550808060010191505061184c565b50600880548061191c5761191b612c18565b5b6001900381819060005260206000200160006101000a81549073ffffffffffffffffffffffffffffffffffffffff021916905590555b6008819080600181540180825580915050600190039060005260206000200160009091909190916101000a81548173ffffffffffffffffffffffffffffffffffffffff021916908373ffffffffffffffffffffffffffffffffffffffff16021790555050565b600a60405180608001604052808473ffffffffffffffffffffffffffffffffffffffff168152602001838152602001428152602001600254815250908060018154018082558091505060019003906000526020600020906004020160009091909190915060008201518160000160006101000a81548173ffffffffffffffffffffffffffffffffffffffff021916908373ffffffffffffffffffffffffffffffffffffffff16021790555060208201518160010155604082015181600201556060820151816003015550505050565b600047905060003482611a9a919061270f565b905060006008805490509050600081118015611ab65750600082115b1561201457600061271060055484611ace919061278b565b611ad89190612c76565b905060008184611ae8919061270f565b905060008382611af89190612c76565b905060008482611b08919061278b565b83611b13919061270f565b905060008185611b2391906127cd565b90506000811115611cb6576000600460009054906101000a900473ffffffffffffffffffffffffffffffffffffffff1673ffffffffffffffffffffffffffffffffffffffff1682604051611b76906121ee565b60006040518083038185875af1925050503d8060008114611bb3576040519150601f19603f3d011682016040523d82523d6000602084013e611bb8565b606091505b505090508015611c3b57600460009054906101000a900473ffffffffffffffffffffffffffffffffffffffff1673ffffffffffffffffffffffffffffffffffffffff167f108516ddcf5ba43cea6bb2cd5ff6d59ac196c1c86ccb9178332b9dd72d1ca56183600254604051611c2e929190612bef565b60405180910390a2611cb4565b8160096000600460009054906101000a900473ffffffffffffffffffffffffffffffffffffffff1673ffffffffffffffffffffffffffffffffffffffff1673ffffffffffffffffffffffffffffffffffffffff1681526020019081526020016000206000828254611cac91906127cd565b925050819055505b505b60008667ffffffffffffffff811115611cd257611cd1612830565b5b604051908082528060200260200182016040528015611d005781602001602082028036833780820191505090505b5090506000805b88811015611f915760088181548110611d2357611d22612801565b5b9060005260206000200160009054906101000a900473ffffffffffffffffffffffffffffffffffffffff16838281518110611d6157611d60612801565b5b602002602001019073ffffffffffffffffffffffffffffffffffffffff16908173ffffffffffffffffffffffffffffffffffffffff1681525050600060088281548110611db157611db0612801565b5b9060005260206000200160009054906101000a900473ffffffffffffffffffffffffffffffffffffffff1673ffffffffffffffffffffffffffffffffffffffff1687604051611dff906121ee565b60006040518083038185875af1925050503d8060008114611e3c576040519150601f19603f3d011682016040523d82523d6000602084013e611e41565b606091505b505090508015611e5e578683611e5791906127cd565b9250611f83565b866009600060088581548110611e7757611e76612801565b5b9060005260206000200160009054906101000a900473ffffffffffffffffffffffffffffffffffffffff1673ffffffffffffffffffffffffffffffffffffffff1673ffffffffffffffffffffffffffffffffffffffff1681526020019081526020016000206000828254611eeb91906127cd565b9250508190555060088281548110611f0657611f05612801565b5b9060005260206000200160009054906101000a900473ffffffffffffffffffffffffffffffffffffffff1673ffffffffffffffffffffffffffffffffffffffff167f7aae1d64354f89d76ddcbadb1e9fef2fa6fa3e7a3372265010642b4de8dc1d9188600254604051611f7a929190612bef565b60405180910390a25b508080600101915050611d07565b507f8e3ec98b9615a9bd8e08e5d4563502a274b1c35c02fb12b1e71ad210a81261c98286600254604051611fc793929190612ca7565b60405180910390a17f4f04ba2738cd9c9e5569739b68d757b711485d983221905b2d53cbe4ec4552c5600254838360405161200493929190612ce5565b60405180910390a1505050505050505b6002600081548092919061202790612743565b9190505550505050565b6040518060800160405280600073ffffffffffffffffffffffffffffffffffffffff1681526020016000815260200160008152602001600081525090565b508054600082559060005260206000209081019061208d9190612090565b50565b5b808211156120a9576000816000905550600101612091565b5090565b600082825260208201905092915050565b7f4d7573742073656e642045544800000000000000000000000000000000000000600082015250565b60006120f4600d836120ad565b91506120ff826120be565b602082019050919050565b60006020820190508181036000830152612123816120e7565b9050919050565b6000819050919050565b61213d8161212a565b82525050565b7f57726f6e6720746f6b656e3a2045524332302072657175697265640000000000600082015250565b6000612179601b836120ad565b915061218482612143565b602082019050919050565b60006040820190506121a46000830184612134565b81810360208301526121b58161216c565b905092915050565b600081905092915050565b50565b60006121d86000836121bd565b91506121e3826121c8565b600082019050919050565b60006121f9826121cb565b9150819050919050565b7f4661696c656420746f2072657475726e2045544820746f206f776e6572000000600082015250565b6000612239601d836120ad565b915061224482612203565b602082019050919050565b600060208201905081810360008301526122688161222c565b9050919050565b7f42656c6f77206d696e696d756d206465706f7369740000000000000000000000600082015250565b60006122a56015836120ad565b91506122b08261226f565b602082019050919050565b60006040820190506122d06000830184612134565b81810360208301526122e181612298565b905092915050565b600081519050919050565b600082825260208201905092915050565b6000819050602082019050919050565b600073ffffffffffffffffffffffffffffffffffffffff82169050919050565b600061234082612315565b9050919050565b61235081612335565b82525050565b61235f8161212a565b82525050565b60808201600082015161237b6000850182612347565b50602082015161238e6020850182612356565b5060408201516123a16040850182612356565b5060608201516123b46060850182612356565b50505050565b60006123c68383612365565b60808301905092915050565b6000602082019050919050565b60006123ea826122e9565b6123f481856122f4565b93506123ff83612305565b8060005b8381101561243057815161241788826123ba565b9750612422836123d2565b925050600181019050612403565b5085935050505092915050565b6000602082019050818103600083015261245781846123df565b905092915050565b60006020820190506124746000830184612134565b92915050565b600080fd5b6124888161212a565b811461249357600080fd5b50565b6000813590506124a58161247f565b92915050565b6000602082840312156124c1576124c061247a565b5b60006124cf84828501612496565b91505092915050565b6124e181612335565b82525050565b60006020820190506124fc60008301846124d8565b92915050565b61250b81612335565b811461251657600080fd5b50565b60008135905061252881612502565b92915050565b6000602082840312156125445761254361247a565b5b600061255284828501612519565b91505092915050565b600081519050919050565b600082825260208201905092915050565b6000819050602082019050919050565b60006125938383612347565b60208301905092915050565b6000602082019050919050565b60006125b78261255b565b6125c18185612566565b93506125cc83612577565b8060005b838110156125fd5781516125e48882612587565b97506125ef8361259f565b9250506001810190506125d0565b5085935050505092915050565b600060a08201905061261f6000830188612134565b818103602083015261263181876125ac565b90506126406040830186612134565b61264d6060830185612134565b61265a6080830184612134565b9695505050505050565b600060808201905061267960008301876124d8565b6126866020830186612134565b6126936040830185612134565b6126a06060830184612134565b95945050505050565b60006060820190506126be6000830186612134565b6126cb6020830185612134565b6126d86040830184612134565b949350505050565b7f4e487b7100000000000000000000000000000000000000000000000000000000600052601160045260246000fd5b600061271a8261212a565b91506127258361212a565b925082820390508181111561273d5761273c6126e0565b5b92915050565b600061274e8261212a565b91507fffffffffffffffffffffffffffffffffffffffffffffffffffffffffffffffff82036127805761277f6126e0565b5b600182019050919050565b60006127968261212a565b91506127a18361212a565b92508282026127af8161212a565b915082820484148315176127c6576127c56126e0565b5b5092915050565b60006127d88261212a565b91506127e38361212a565b92508282019050808211156127fb576127fa6126e0565b5b92915050565b7f4e487b7100000000000000000000000000000000000000000000000000000000600052603260045260246000fd5b7f4e487b7100000000000000000000000000000000000000000000000000000000600052604160045260246000fd5b7f4e6f2070656e64696e67207769746864726177616c7300000000000000000000600082015250565b60006128956016836120ad565b91506128a08261285f565b602082019050919050565b600060208201905081810360008301526128c481612888565b9050919050565b7f5769746864726177616c206661696c6564000000000000000000000000000000600082015250565b60006129016011836120ad565b915061290c826128cb565b602082019050919050565b60006020820190508181036000830152612930816128f4565b9050919050565b7f4f6e6c79206e6174697665204554482061636365707465640000000000000000600082015250565b600061296d6018836120ad565b915061297882612937565b602082019050919050565b6000602082019050818103600083015261299c81612960565b9050919050565b60006060820190506129b860008301866124d8565b6129c560208301856124d8565b6129d26040830184612134565b949350505050565b60008115159050919050565b6129ef816129da565b81146129fa57600080fd5b50565b600081519050612a0c816129e6565b92915050565b600060208284031215612a2857612a2761247a565b5b6000612a36848285016129fd565b91505092915050565b7f546f6b656e207472616e73666572206661696c65640000000000000000000000600082015250565b6000612a756015836120ad565b9150612a8082612a3f565b602082019050919050565b60006020820190508181036000830152612aa481612a68565b9050919050565b7f526f756e64206e6f7420656e646564206f72206e6f7420616374697665000000600082015250565b6000612ae1601d836120ad565b9150612aec82612aab565b602082019050919050565b60006020820190508181036000830152612b1081612ad4565b9050919050565b7f4f6e6c79206f776e65722063616e2063616c6c20746869730000000000000000600082015250565b6000612b4d6018836120ad565b9150612b5882612b17565b602082019050919050565b60006020820190508181036000830152612b7c81612b40565b9050919050565b7f4665652063616e6e6f7420657863656564203230250000000000000000000000600082015250565b6000612bb96015836120ad565b9150612bc482612b83565b602082019050919050565b60006020820190508181036000830152612be881612bac565b9050919050565b6000604082019050612c046000830185612134565b612c116020830184612134565b9392505050565b7f4e487b7100000000000000000000000000000000000000000000000000000000600052603160045260246000fd5b7f4e487b7100000000000000000000000000000000000000000000000000000000600052601260045260246000fd5b6000612c818261212a565b9150612c8c8361212a565b925082612c9c57612c9b612c47565b5b828204905092915050565b60006060820190508181036000830152612cc181866125ac565b9050612cd06020830185612134565b612cdd6040830184612134565b949350505050565b6000606082019050612cfa6000830186612134565b8181036020830152612d0c81856125ac565b9050612d1b6040830184612134565b94935050505056fea26469706673582212205acd34a7fb4d883e9a4aee2336cc50db330fbc0cc9716ef86826ee31ffa00ce664736f6c634300081b0033",
  "linkReferences": {},
  "deployedLinkReferences": {}
}