{
  "_format": "hh-sol-artifact-1",
  "contractName": "Jackpot",
  "sourceName": "contracts/Jackpot.sol",
  "abi": [
    {
      "inputs": [],
      "stateMutability": "nonpayable",
      "type": "constructor"
    },
    {
      "anonymous": false,
      "inputs": [
        {
          "indexed": false,
          "internalType": "uint256",
          "name": "endTime",
          "type": "uint256"
        }
      ],
      "name": "GameStarted",
      "type": "event"
    },
    {
      "anonymous": false,
      "inputs": [
        {
          "indexed": true,
          "internalType": "address",
          "name": "player",
          "type": "address"
        },
        {
          "indexed": false,
          "internalType": "uint256",
          "name": "newEndTime",
          "type": "uint256"
        },
        {
          "indexed": false,
          "internalType": "uint256",
          "name": "criticalTouches",
          "type": "uint256"
        }
      ],
      "name": "Touched",
      "type": "event"
    },
    {
      "anonymous": false,
      "inputs": [
        {
          "indexed": true,
          "internalType": "address",
          "name": "winner",
          "type": "address"
        },
        {
          "indexed": false,
          "internalType": "uint256",
          "name": "amount",
          "type": "uint256"
        }
      ],
      "name": "WinnerPicked",
      "type": "event"
    },
    {
      "inputs": [],
      "name": "CRITICAL_ZONE_START",
      "outputs": [
        {
          "internalType": "uint256",
          "name": "",
          "type": "uint256"
        }
      ],
      "stateMutability": "view",
      "type": "function"
    },
    {
      "inputs": [],
      "name": "DECAY_STEP",
      "outputs": [
        {
          "internalType": "uint256",
          "name": "",
          "type": "uint256"
        }
      ],
      "stateMutability": "view",
      "type": "function"
    },
    {
      "inputs": [],
      "name": "GAME_DURATION",
      "outputs": [
        {
          "internalType": "uint256",
          "name": "",
          "type": "uint256"
        }
      ],
      "stateMutability": "view",
      "type": "function"
    },
    {
      "inputs": [],
      "name": "MIN_BET",
      "outputs": [
        {
          "internalType": "uint256",
          "name": "",
          "type": "uint256"
        }
      ],
      "stateMutability": "view",
      "type": "function"
    },
    {
      "inputs": [],
      "name": "baseResetTime",
      "outputs": [
        {
          "internalType": "uint256",
          "name": "",
          "type": "uint256"
        }
      ],
      "stateMutability": "view",
      "type": "function"
    },
    {
      "inputs": [],
      "name": "criticalTouches",
      "outputs": [
        {
          "internalType": "uint256",
          "name": "",
          "type": "uint256"
        }
      ],
      "stateMutability": "view",
      "type": "function"
    },
    {
      "inputs": [],
      "name": "gameEndTime",
      "outputs": [
        {
          "internalType": "uint256",
          "name": "",
          "type": "uint256"
        }
      ],
      "stateMutability": "view",
      "type": "function"
    },
    {
      "inputs": [],
      "name": "gameEnded",
      "outputs": [
        {
          "internalType": "bool",
          "name": "",
          "type": "bool"
        }
      ],
      "stateMutability": "view",
      "type": "function"
    },
    {
      "inputs": [],
      "name": "getGameState",
      "outputs": [
        {
          "internalType": "uint256",
          "name": "timeLeft",
          "type": "uint256"
        },
        {
          "internalType": "address[]",
          "name": "players",
          "type": "address[]"
        },
        {
          "internalType": "uint256",
          "name": "jackpot",
          "type": "uint256"
        },
        {
          "internalType": "bool",
          "name": "isEnded",
          "type": "bool"
        }
      ],
      "stateMutability": "view",
      "type": "function"
    },
    {
      "inputs": [
        {
          "internalType": "uint256",
          "name": "",
          "type": "uint256"
        }
      ],
      "name": "last5Players",
      "outputs": [
        {
          "internalType": "address",
          "name": "",
          "type": "address"
        }
      ],
      "stateMutability": "view",
      "type": "function"
    },
    {
      "inputs": [],
      "name": "pickWinner",
      "outputs": [],
      "stateMutability": "nonpayable",
      "type": "function"
    },
    {
      "inputs": [],
      "name": "startGame",
      "outputs": [],
      "stateMutability": "nonpayable",
      "type": "function"
    },
    {
      "inputs": [],
      "name": "touch",
      "outputs": [],
      "stateMutability": "payable",
      "type": "function"
    },
    {
      "inputs": [],
      "name": "winner",
      "outputs": [
        {
          "internalType": "address",
          "name": "",
          "type": "address"
        }
      ],
      "stateMutability": "view",
      "type": "function"
    }
  ],
  "bytecode": "0x608060405234801561001057600080fd5b5061001f61002460201b60201c565b61029c565b600460149054906101000a900460ff1680610040575060008054145b61007f576040517f08c379a0000000000000000000000000000000000000000000000000000000008152600401610076906101e5565b60405180910390fd5b6102584261008d919061023e565b60008190555061021c60018190555060006002819055506000600460146101000a81548160ff0219169083151502179055506000600460006101000a81548173ffffffffffffffffffffffffffffffffffffffff021916908373ffffffffffffffffffffffffffffffffffffffff1602179055506003600061010f919061014a565b7f50ad08f58a27f2851d7e3a1b3a6a46b290f2ce677e99642d30ff639721e777906000546040516101409190610281565b60405180910390a1565b5080546000825590600052602060002090810190610168919061016b565b50565b5b8082111561018457600081600090555060010161016c565b5090565b600082825260208201905092915050565b7f47616d6520616c72656164792072756e6e696e67000000000000000000000000600082015250565b60006101cf601483610188565b91506101da82610199565b602082019050919050565b600060208201905081810360008301526101fe816101c2565b9050919050565b6000819050919050565b7f4e487b7100000000000000000000000000000000000000000000000000000000600052601160045260246000fd5b600061024982610205565b915061025483610205565b925082820190508082111561026c5761026b61020f565b5b92915050565b61027b81610205565b82525050565b60006020820190506102966000830184610272565b92915050565b611529806102ab6000396000f3fe6080604052600436106100dd5760003560e01c8063a55526db1161007f578063d65ab5f211610059578063d65ab5f214610270578063d69501c914610287578063dfbf53ae146102b2578063e76b2419146102dd576100dd565b8063a55526db1461020d578063b7d0628b14610217578063c31b29ce14610245576100dd565b80635d495aea116100bb5780635d495aea146101755780636540742f1461018c57806369d29de2146101b75780639abe8d8d146101e2576100dd565b80632cd16b28146100e25780632f6fe3961461011f57806344d9bc5f1461014a575b600080fd5b3480156100ee57600080fd5b5061010960048036038101906101049190610c35565b610308565b6040516101169190610ca3565b60405180910390f35b34801561012b57600080fd5b50610134610347565b6040516101419190610cd9565b60405180910390f35b34801561015657600080fd5b5061015f61035a565b60405161016c9190610d03565b60405180910390f35b34801561018157600080fd5b5061018a610360565b005b34801561019857600080fd5b506101a1610629565b6040516101ae9190610d03565b60405180910390f35b3480156101c357600080fd5b506101cc61062f565b6040516101d99190610d03565b60405180910390f35b3480156101ee57600080fd5b506101f7610635565b6040516102049190610d03565b60405180910390f35b61021561063b565b005b34801561022357600080fd5b5061022c61098b565b60405161023c9493929190610ddc565b60405180910390f35b34801561025157600080fd5b5061025a610a5f565b6040516102679190610d03565b60405180910390f35b34801561027c57600080fd5b50610285610a65565b005b34801561029357600080fd5b5061029c610b8b565b6040516102a99190610d03565b60405180910390f35b3480156102be57600080fd5b506102c7610b91565b6040516102d49190610ca3565b60405180910390f35b3480156102e957600080fd5b506102f2610bb7565b6040516102ff9190610d03565b60405180910390f35b6003818154811061031857600080fd5b906000526020600020016000915054906101000a900473ffffffffffffffffffffffffffffffffffffffff1681565b600460149054906101000a900460ff1681565b60005481565b600460149054906101000a900460ff16156103b0576040517f08c379a00000000000000000000000000000000000000000000000000000000081526004016103a790610e85565b60405180910390fd5b6000544210156103f5576040517f08c379a00000000000000000000000000000000000000000000000000000000081526004016103ec90610ef1565b60405180910390fd5b6001600460146101000a81548160ff021916908315150217905550600060038054905011156106275760006003805490504244600360405160200161043c93929190611050565b6040516020818303038152906040528051906020012060001c61045f91906110b8565b905060038181548110610475576104746110e9565b5b9060005260206000200160009054906101000a900473ffffffffffffffffffffffffffffffffffffffff16600460006101000a81548173ffffffffffffffffffffffffffffffffffffffff021916908373ffffffffffffffffffffffffffffffffffffffff16021790555060004790506000600460009054906101000a900473ffffffffffffffffffffffffffffffffffffffff1673ffffffffffffffffffffffffffffffffffffffff168260405161052d90611149565b60006040518083038185875af1925050503d806000811461056a576040519150601f19603f3d011682016040523d82523d6000602084013e61056f565b606091505b50509050806105b3576040517f08c379a00000000000000000000000000000000000000000000000000000000081526004016105aa906111aa565b60405180910390fd5b600460009054906101000a900473ffffffffffffffffffffffffffffffffffffffff1673ffffffffffffffffffffffffffffffffffffffff167f64791dbae5677392ba76761a5273633cec8f1d9d8cfe808da7bac6ef16a880be8360405161061b9190610d03565b60405180910390a25050505b565b61c35081565b60025481565b61021c81565b600460149054906101000a900460ff161561068b576040517f08c379a000000000000000000000000000000000000000000000000000000000815260040161068290611216565b60405180910390fd5b60005442106106cf576040517f08c379a00000000000000000000000000000000000000000000000000000000081526004016106c690611282565b60405180910390fd5b61c350341015610714576040517f08c379a000000000000000000000000000000000000000000000000000000000815260040161070b906112ee565b60405180910390fd5b60056003805490501061082a5760005b60048110156107e157600360018261073c919061133d565b8154811061074d5761074c6110e9565b5b9060005260206000200160009054906101000a900473ffffffffffffffffffffffffffffffffffffffff166003828154811061078c5761078b6110e9565b5b9060005260206000200160006101000a81548173ffffffffffffffffffffffffffffffffffffffff021916908373ffffffffffffffffffffffffffffffffffffffff1602179055508080600101915050610724565b5060038054806107f4576107f3611371565b5b6001900381819060005260206000200160006101000a81549073ffffffffffffffffffffffffffffffffffffffff021916905590555b6003339080600181540180825580915050600190039060005260206000200160009091909190916101000a81548173ffffffffffffffffffffffffffffffffffffffff021916908373ffffffffffffffffffffffffffffffffffffffff16021790555060004260005461089d91906113a0565b6102586108aa91906113a0565b905061021c811061093357600260008154809291906108c8906113d4565b9190505550600060036002546108de919061141c565b6001546108eb919061133d565b9050610258811061090c5742600081905550610905610360565b5050610989565b60008161025861091c91906113a0565b9050804261092a919061133d565b60008190555050505b3373ffffffffffffffffffffffffffffffffffffffff167f5fe7d12fa2a6606250a531e7a5fec966435ee9821beb1a5f24345143a07cf2f360005460025460405161097f92919061145e565b60405180910390a2505b565b6000606060008060005442106109a457600093506109b5565b426000546109b291906113a0565b93505b83600347600460149054906101000a900460ff1682805480602002602001604051908101604052809291908181526020018280548015610a4a57602002820191906000526020600020905b8160009054906101000a900473ffffffffffffffffffffffffffffffffffffffff1673ffffffffffffffffffffffffffffffffffffffff1681526020019060010190808311610a00575b50505050509250935093509350935090919293565b61025881565b600460149054906101000a900460ff1680610a81575060008054145b610ac0576040517f08c379a0000000000000000000000000000000000000000000000000000000008152600401610ab7906114d3565b60405180910390fd5b61025842610ace919061133d565b60008190555061021c60018190555060006002819055506000600460146101000a81548160ff0219169083151502179055506000600460006101000a81548173ffffffffffffffffffffffffffffffffffffffff021916908373ffffffffffffffffffffffffffffffffffffffff16021790555060036000610b509190610bbc565b7f50ad08f58a27f2851d7e3a1b3a6a46b290f2ce677e99642d30ff639721e77790600054604051610b819190610d03565b60405180910390a1565b60015481565b600460009054906101000a900473ffffffffffffffffffffffffffffffffffffffff1681565b600381565b5080546000825590600052602060002090810190610bda9190610bdd565b50565b5b80821115610bf6576000816000905550600101610bde565b5090565b600080fd5b6000819050919050565b610c1281610bff565b8114610c1d57600080fd5b50565b600081359050610c2f81610c09565b92915050565b600060208284031215610c4b57610c4a610bfa565b5b6000610c5984828501610c20565b91505092915050565b600073ffffffffffffffffffffffffffffffffffffffff82169050919050565b6000610c8d82610c62565b9050919050565b610c9d81610c82565b82525050565b6000602082019050610cb86000830184610c94565b92915050565b60008115159050919050565b610cd381610cbe565b82525050565b6000602082019050610cee6000830184610cca565b92915050565b610cfd81610bff565b82525050565b6000602082019050610d186000830184610cf4565b92915050565b600081519050919050565b600082825260208201905092915050565b6000819050602082019050919050565b610d5381610c82565b82525050565b6000610d658383610d4a565b60208301905092915050565b6000602082019050919050565b6000610d8982610d1e565b610d938185610d29565b9350610d9e83610d3a565b8060005b83811015610dcf578151610db68882610d59565b9750610dc183610d71565b925050600181019050610da2565b5085935050505092915050565b6000608082019050610df16000830187610cf4565b8181036020830152610e038186610d7e565b9050610e126040830185610cf4565b610e1f6060830184610cca565b95945050505050565b600082825260208201905092915050565b7f47616d6520616c726561647920656e6465640000000000000000000000000000600082015250565b6000610e6f601283610e28565b9150610e7a82610e39565b602082019050919050565b60006020820190508181036000830152610e9e81610e62565b9050919050565b7f47616d65206e6f74206f76657220796574000000000000000000000000000000600082015250565b6000610edb601183610e28565b9150610ee682610ea5565b602082019050919050565b60006020820190508181036000830152610f0a81610ece565b9050919050565b6000819050919050565b610f2c610f2782610bff565b610f11565b82525050565b600081549050919050565b600081905092915050565b60008190508160005260206000209050919050565b610f6681610c82565b82525050565b6000610f788383610f5d565b60208301905092915050565b60008160001c9050919050565b600073ffffffffffffffffffffffffffffffffffffffff82169050919050565b6000610fc4610fbf83610f84565b610f91565b9050919050565b6000610fd78254610fb1565b9050919050565b6000600182019050919050565b6000610ff682610f32565b6110008185610f3d565b935061100b83610f48565b8060005b838110156110435761102082610fcb565b61102a8882610f6c565b975061103583610fde565b92505060018101905061100f565b5085935050505092915050565b600061105c8286610f1b565b60208201915061106c8285610f1b565b60208201915061107c8284610feb565b9150819050949350505050565b7f4e487b7100000000000000000000000000000000000000000000000000000000600052601260045260246000fd5b60006110c382610bff565b91506110ce83610bff565b9250826110de576110dd611089565b5b828206905092915050565b7f4e487b7100000000000000000000000000000000000000000000000000000000600052603260045260246000fd5b600081905092915050565b50565b6000611133600083611118565b915061113e82611123565b600082019050919050565b600061115482611126565b9150819050919050565b7f4661696c656420746f2073656e64204574686572000000000000000000000000600082015250565b6000611194601483610e28565b915061119f8261115e565b602082019050919050565b600060208201905081810360008301526111c381611187565b9050919050565b7f47616d6520656e64656400000000000000000000000000000000000000000000600082015250565b6000611200600a83610e28565b915061120b826111ca565b602082019050919050565b6000602082019050818103600083015261122f816111f3565b9050919050565b7f54696d6520697320757000000000000000000000000000000000000000000000600082015250565b600061126c600a83610e28565b915061127782611236565b602082019050919050565b6000602082019050818103600083015261129b8161125f565b9050919050565b7f42657420746f6f20736d616c6c00000000000000000000000000000000000000600082015250565b60006112d8600d83610e28565b91506112e3826112a2565b602082019050919050565b60006020820190508181036000830152611307816112cb565b9050919050565b7f4e487b7100000000000000000000000000000000000000000000000000000000600052601160045260246000fd5b600061134882610bff565b915061135383610bff565b925082820190508082111561136b5761136a61130e565b5b92915050565b7f4e487b7100000000000000000000000000000000000000000000000000000000600052603160045260246000fd5b60006113ab82610bff565b91506113b683610bff565b92508282039050818111156113ce576113cd61130e565b5b92915050565b60006113df82610bff565b91507fffffffffffffffffffffffffffffffffffffffffffffffffffffffffffffffff82036114115761141061130e565b5b600182019050919050565b600061142782610bff565b915061143283610bff565b925082820261144081610bff565b915082820484148315176114575761145661130e565b5b5092915050565b60006040820190506114736000830185610cf4565b6114806020830184610cf4565b9392505050565b7f47616d6520616c72656164792072756e6e696e67000000000000000000000000600082015250565b60006114bd601483610e28565b91506114c882611487565b602082019050919050565b600060208201905081810360008301526114ec816114b0565b905091905056fea2646970667358221220a93ceddac8c41ce6418f34875c2b731731970d28e96671197032d0608e20996a64736f6c634300081b0033",
  "linkReferences": {},
  "deployedLinkReferences": {}
}