{
  "_format": "hh-sol-artifact-1",
  "contractName": "Jackpot",
  "sourceName": "contracts/Jackpot.sol",
  "abi": [
    {
      "inputs": [],
      "stateMutability": "nonpayable",
      "type": "constructor"
    },
    {
      "anonymous": false,
      "inputs": [
        {
          "indexed": true,
          "internalType": "address",
          "name": "player",
          "type": "address"
        },
        {
          "indexed": false,
          "internalType": "uint256",
          "name": "newEndTime",
          "type": "uint256"
        },
        {
          "indexed": false,
          "internalType": "uint256",
          "name": "amount",
          "type": "uint256"
        }
      ],
      "name": "Deposit",
      "type": "event"
    },
    {
      "anonymous": false,
      "inputs": [
        {
          "indexed": true,
          "internalType": "address",
          "name": "settler",
          "type": "address"
        }
      ],
      "name": "GameSettled",
      "type": "event"
    },
    {
      "anonymous": false,
      "inputs": [
        {
          "indexed": false,
          "internalType": "uint256",
          "name": "startTime",
          "type": "uint256"
        },
        {
          "indexed": false,
          "internalType": "uint256",
          "name": "endTime",
          "type": "uint256"
        }
      ],
      "name": "GameStarted",
      "type": "event"
    },
    {
      "anonymous": false,
      "inputs": [
        {
          "indexed": false,
          "internalType": "address[]",
          "name": "winners",
          "type": "address[]"
        },
        {
          "indexed": false,
          "internalType": "uint256",
          "name": "amountPerWinner",
          "type": "uint256"
        }
      ],
      "name": "WinnersPaid",
      "type": "event"
    },
    {
      "inputs": [],
      "name": "EXTENSION_STEP",
      "outputs": [
        {
          "internalType": "uint256",
          "name": "",
          "type": "uint256"
        }
      ],
      "stateMutability": "view",
      "type": "function"
    },
    {
      "inputs": [],
      "name": "EXTENSION_ZONE_START",
      "outputs": [
        {
          "internalType": "uint256",
          "name": "",
          "type": "uint256"
        }
      ],
      "stateMutability": "view",
      "type": "function"
    },
    {
      "inputs": [],
      "name": "MAX_DURATION",
      "outputs": [
        {
          "internalType": "uint256",
          "name": "",
          "type": "uint256"
        }
      ],
      "stateMutability": "view",
      "type": "function"
    },
    {
      "inputs": [],
      "name": "MIN_BET",
      "outputs": [
        {
          "internalType": "uint256",
          "name": "",
          "type": "uint256"
        }
      ],
      "stateMutability": "view",
      "type": "function"
    },
    {
      "inputs": [],
      "name": "endTime",
      "outputs": [
        {
          "internalType": "uint256",
          "name": "",
          "type": "uint256"
        }
      ],
      "stateMutability": "view",
      "type": "function"
    },
    {
      "inputs": [],
      "name": "gameEnded",
      "outputs": [
        {
          "internalType": "bool",
          "name": "",
          "type": "bool"
        }
      ],
      "stateMutability": "view",
      "type": "function"
    },
    {
      "inputs": [],
      "name": "getGameState",
      "outputs": [
        {
          "internalType": "uint256",
          "name": "timeLeft",
          "type": "uint256"
        },
        {
          "internalType": "address[]",
          "name": "players",
          "type": "address[]"
        },
        {
          "internalType": "uint256",
          "name": "jackpot",
          "type": "uint256"
        },
        {
          "internalType": "bool",
          "name": "isEnded",
          "type": "bool"
        },
        {
          "internalType": "uint256",
          "name": "currentEndTime",
          "type": "uint256"
        }
      ],
      "stateMutability": "view",
      "type": "function"
    },
    {
      "inputs": [
        {
          "internalType": "uint256",
          "name": "",
          "type": "uint256"
        }
      ],
      "name": "last5Players",
      "outputs": [
        {
          "internalType": "address",
          "name": "",
          "type": "address"
        }
      ],
      "stateMutability": "view",
      "type": "function"
    },
    {
      "inputs": [],
      "name": "startGame",
      "outputs": [],
      "stateMutability": "nonpayable",
      "type": "function"
    },
    {
      "inputs": [],
      "name": "startTime",
      "outputs": [
        {
          "internalType": "uint256",
          "name": "",
          "type": "uint256"
        }
      ],
      "stateMutability": "view",
      "type": "function"
    },
    {
      "inputs": [],
      "name": "touch",
      "outputs": [],
      "stateMutability": "payable",
      "type": "function"
    }
  ],
  "bytecode": "0x608060405234801561001057600080fd5b5061001f61002460201b60201c565b610263565b600360009054906101000a900460ff1680610040575060008054145b61007f576040517f08c379a00000000000000000000000000000000000000000000000000000000081526004016100769061019e565b60405180910390fd5b42600081905550603c60005461009591906101f7565b6001819055506000600360006101000a81548160ff021916908315150217905550600260006100c49190610103565b7fa2dfaa3573b86004ec9d4d4abe5068d942579c59da4da8cd0d9e45e71a393bc16000546001546040516100f992919061023a565b60405180910390a1565b50805460008255906000526020600020908101906101219190610124565b50565b5b8082111561013d576000816000905550600101610125565b5090565b600082825260208201905092915050565b7f47616d6520616c72656164792072756e6e696e67000000000000000000000000600082015250565b6000610188601483610141565b915061019382610152565b602082019050919050565b600060208201905081810360008301526101b78161017b565b9050919050565b6000819050919050565b7f4e487b7100000000000000000000000000000000000000000000000000000000600052601160045260246000fd5b6000610202826101be565b915061020d836101be565b9250828201905080821115610225576102246101c8565b5b92915050565b610234816101be565b82525050565b600060408201905061024f600083018561022b565b61025c602083018461022b565b9392505050565b6110e0806102726000396000f3fe60806040526004361061009c5760003560e01c806378e979251161006457806378e979251461018a5780637ed68f13146101b5578063a55526db146101e0578063b1724b46146101ea578063b7d0628b14610215578063d65ab5f2146102445761009c565b80632cd16b28146100a15780632f6fe396146100de5780633197cbb6146101095780634f5aadf0146101345780636540742f1461015f575b600080fd5b3480156100ad57600080fd5b506100c860048036038101906100c39190610a08565b61025b565b6040516100d59190610a76565b60405180910390f35b3480156100ea57600080fd5b506100f361029a565b6040516101009190610aac565b60405180910390f35b34801561011557600080fd5b5061011e6102ad565b60405161012b9190610ad6565b60405180910390f35b34801561014057600080fd5b506101496102b3565b6040516101569190610ad6565b60405180910390f35b34801561016b57600080fd5b506101746102b8565b6040516101819190610ad6565b60405180910390f35b34801561019657600080fd5b5061019f6102be565b6040516101ac9190610ad6565b60405180910390f35b3480156101c157600080fd5b506101ca6102c4565b6040516101d79190610ad6565b60405180910390f35b6101e86102c9565b005b3480156101f657600080fd5b506101ff61062b565b60405161020c9190610ad6565b60405180910390f35b34801561022157600080fd5b5061022a610630565b60405161023b959493929190610baf565b60405180910390f35b34801561025057600080fd5b5061025961070c565b005b6002818154811061026b57600080fd5b906000526020600020016000915054906101000a900473ffffffffffffffffffffffffffffffffffffffff1681565b600360009054906101000a900460ff1681565b60015481565b600381565b61c35081565b60005481565b602d81565b600360009054906101000a900460ff1615610319576040517f08c379a000000000000000000000000000000000000000000000000000000000815260040161031090610c66565b60405180910390fd5b6001544211156103ba5761032b6107eb565b3373ffffffffffffffffffffffffffffffffffffffff166108fc349081150290604051600060405180830381858888f19350505050158015610371573d6000803e3d6000fd5b503373ffffffffffffffffffffffffffffffffffffffff167f186ff2a3ec0dbae1b8a89730f05c88c14cd9a7989222d42ae136a5152468d7e060405160405180910390a2610629565b61c3503410156103ff576040517f08c379a00000000000000000000000000000000000000000000000000000000081526004016103f690610cd2565b60405180910390fd5b6005600280549050106105155760005b60048110156104cc5760026001826104279190610d21565b8154811061043857610437610d55565b5b9060005260206000200160009054906101000a900473ffffffffffffffffffffffffffffffffffffffff166002828154811061047757610476610d55565b5b9060005260206000200160006101000a81548173ffffffffffffffffffffffffffffffffffffffff021916908373ffffffffffffffffffffffffffffffffffffffff160217905550808060010191505061040f565b5060028054806104df576104de610d84565b5b6001900381819060005260206000200160006101000a81549073ffffffffffffffffffffffffffffffffffffffff021916905590555b6002339080600181540180825580915050600190039060005260206000200160009091909190916101000a81548173ffffffffffffffffffffffffffffffffffffffff021916908373ffffffffffffffffffffffffffffffffffffffff160217905550602d6000546105879190610d21565b42106105d6576003600160008282546105a09190610d21565b92505081905550603c6000546105b69190610d21565b60015411156105d557603c6000546105ce9190610d21565b6001819055505b5b3373ffffffffffffffffffffffffffffffffffffffff167f90890809c654f11d6e72a28fa60149770a0d11ec6c92319d6ceb2bb0a4ea1a1560015434604051610620929190610db3565b60405180910390a25b565b603c81565b600060606000806000600154421061064b576000945061065c565b426001546106599190610ddc565b94505b84600247600360009054906101000a900460ff16600154838054806020026020016040519081016040528092919081815260200182805480156106f457602002820191906000526020600020905b8160009054906101000a900473ffffffffffffffffffffffffffffffffffffffff1673ffffffffffffffffffffffffffffffffffffffff16815260200190600101908083116106aa575b50505050509350945094509450945094509091929394565b600360009054906101000a900460ff1680610728575060008054145b610767576040517f08c379a000000000000000000000000000000000000000000000000000000000815260040161075e90610e5c565b60405180910390fd5b42600081905550603c60005461077d9190610d21565b6001819055506000600360006101000a81548160ff021916908315150217905550600260006107ac919061098f565b7fa2dfaa3573b86004ec9d4d4abe5068d942579c59da4da8cd0d9e45e71a393bc16000546001546040516107e1929190610db3565b60405180910390a1565b6001600360006101000a81548160ff0219169083151502179055506000479050600034826108199190610ddc565b9050600060028054905090506000811180156108355750600082115b1561098a57600081836108489190610eab565b905060005b8281101561094d5760006002828154811061086b5761086a610d55565b5b9060005260206000200160009054906101000a900473ffffffffffffffffffffffffffffffffffffffff1673ffffffffffffffffffffffffffffffffffffffff16836040516108b990610f0d565b60006040518083038185875af1925050503d80600081146108f6576040519150601f19603f3d011682016040523d82523d6000602084013e6108fb565b606091505b505090508061093f576040517f08c379a000000000000000000000000000000000000000000000000000000000815260040161093690610f6e565b60405180910390fd5b50808060010191505061084d565b507f186b9a6deb394879f9dd9effeb103e79d05e23b226cfe0b1c122af9d33da483860028260405161098092919061107a565b60405180910390a1505b505050565b50805460008255906000526020600020908101906109ad91906109b0565b50565b5b808211156109c95760008160009055506001016109b1565b5090565b600080fd5b6000819050919050565b6109e5816109d2565b81146109f057600080fd5b50565b600081359050610a02816109dc565b92915050565b600060208284031215610a1e57610a1d6109cd565b5b6000610a2c848285016109f3565b91505092915050565b600073ffffffffffffffffffffffffffffffffffffffff82169050919050565b6000610a6082610a35565b9050919050565b610a7081610a55565b82525050565b6000602082019050610a8b6000830184610a67565b92915050565b60008115159050919050565b610aa681610a91565b82525050565b6000602082019050610ac16000830184610a9d565b92915050565b610ad0816109d2565b82525050565b6000602082019050610aeb6000830184610ac7565b92915050565b600081519050919050565b600082825260208201905092915050565b6000819050602082019050919050565b610b2681610a55565b82525050565b6000610b388383610b1d565b60208301905092915050565b6000602082019050919050565b6000610b5c82610af1565b610b668185610afc565b9350610b7183610b0d565b8060005b83811015610ba2578151610b898882610b2c565b9750610b9483610b44565b925050600181019050610b75565b5085935050505092915050565b600060a082019050610bc46000830188610ac7565b8181036020830152610bd68187610b51565b9050610be56040830186610ac7565b610bf26060830185610a9d565b610bff6080830184610ac7565b9695505050505050565b600082825260208201905092915050565b7f47616d6520656e64656400000000000000000000000000000000000000000000600082015250565b6000610c50600a83610c09565b9150610c5b82610c1a565b602082019050919050565b60006020820190508181036000830152610c7f81610c43565b9050919050565b7f42657420746f6f20736d616c6c00000000000000000000000000000000000000600082015250565b6000610cbc600d83610c09565b9150610cc782610c86565b602082019050919050565b60006020820190508181036000830152610ceb81610caf565b9050919050565b7f4e487b7100000000000000000000000000000000000000000000000000000000600052601160045260246000fd5b6000610d2c826109d2565b9150610d37836109d2565b9250828201905080821115610d4f57610d4e610cf2565b5b92915050565b7f4e487b7100000000000000000000000000000000000000000000000000000000600052603260045260246000fd5b7f4e487b7100000000000000000000000000000000000000000000000000000000600052603160045260246000fd5b6000604082019050610dc86000830185610ac7565b610dd56020830184610ac7565b9392505050565b6000610de7826109d2565b9150610df2836109d2565b9250828203905081811115610e0a57610e09610cf2565b5b92915050565b7f47616d6520616c72656164792072756e6e696e67000000000000000000000000600082015250565b6000610e46601483610c09565b9150610e5182610e10565b602082019050919050565b60006020820190508181036000830152610e7581610e39565b9050919050565b7f4e487b7100000000000000000000000000000000000000000000000000000000600052601260045260246000fd5b6000610eb6826109d2565b9150610ec1836109d2565b925082610ed157610ed0610e7c565b5b828204905092915050565b600081905092915050565b50565b6000610ef7600083610edc565b9150610f0282610ee7565b600082019050919050565b6000610f1882610eea565b9150819050919050565b7f4661696c656420746f2073656e64204574686572000000000000000000000000600082015250565b6000610f58601483610c09565b9150610f6382610f22565b602082019050919050565b60006020820190508181036000830152610f8781610f4b565b9050919050565b600081549050919050565b60008190508160005260206000209050919050565b60008160001c9050919050565b600073ffffffffffffffffffffffffffffffffffffffff82169050919050565b6000610fee610fe983610fae565b610fbb565b9050919050565b60006110018254610fdb565b9050919050565b6000600182019050919050565b600061102082610f8e565b61102a8185610afc565b935061103583610f99565b8060005b8381101561106d5761104a82610ff5565b6110548882610b2c565b975061105f83611008565b925050600181019050611039565b5085935050505092915050565b600060408201905081810360008301526110948185611015565b90506110a36020830184610ac7565b939250505056fea26469706673582212202c851d8459565a0d554c128f4d0bd364e56ef7c9ef1d4cefd4be90b85f95f75664736f6c634300081b0033",
  "linkReferences": {},
  "deployedLinkReferences": {}
}