{
  "_format": "hh-sol-artifact-1",
  "contractName": "Jackpot",
  "sourceName": "contracts/Jackpot.sol",
  "abi": [
    {
      "inputs": [],
      "stateMutability": "nonpayable",
      "type": "constructor"
    },
    {
      "anonymous": false,
      "inputs": [
        {
          "indexed": true,
          "internalType": "address",
          "name": "player",
          "type": "address"
        },
        {
          "indexed": false,
          "internalType": "uint256",
          "name": "newEndTime",
          "type": "uint256"
        },
        {
          "indexed": false,
          "internalType": "uint256",
          "name": "amount",
          "type": "uint256"
        },
        {
          "indexed": false,
          "internalType": "uint256",
          "name": "round",
          "type": "uint256"
        }
      ],
      "name": "Deposit",
      "type": "event"
    },
    {
      "anonymous": false,
      "inputs": [
        {
          "indexed": true,
          "internalType": "address",
          "name": "owner",
          "type": "address"
        },
        {
          "indexed": false,
          "internalType": "uint256",
          "name": "amount",
          "type": "uint256"
        },
        {
          "indexed": false,
          "internalType": "uint256",
          "name": "round",
          "type": "uint256"
        }
      ],
      "name": "FeeCollected",
      "type": "event"
    },
    {
      "anonymous": false,
      "inputs": [
        {
          "indexed": false,
          "internalType": "uint256",
          "name": "oldFee",
          "type": "uint256"
        },
        {
          "indexed": false,
          "internalType": "uint256",
          "name": "newFee",
          "type": "uint256"
        }
      ],
      "name": "FeePercentageUpdated",
      "type": "event"
    },
    {
      "anonymous": false,
      "inputs": [
        {
          "indexed": false,
          "internalType": "uint256",
          "name": "round",
          "type": "uint256"
        },
        {
          "indexed": false,
          "internalType": "address[]",
          "name": "winners",
          "type": "address[]"
        }
      ],
      "name": "RoundEnded",
      "type": "event"
    },
    {
      "anonymous": false,
      "inputs": [
        {
          "indexed": false,
          "internalType": "uint256",
          "name": "round",
          "type": "uint256"
        },
        {
          "indexed": false,
          "internalType": "uint256",
          "name": "startTime",
          "type": "uint256"
        },
        {
          "indexed": false,
          "internalType": "uint256",
          "name": "endTime",
          "type": "uint256"
        }
      ],
      "name": "RoundStarted",
      "type": "event"
    },
    {
      "anonymous": false,
      "inputs": [
        {
          "indexed": false,
          "internalType": "address[]",
          "name": "winners",
          "type": "address[]"
        },
        {
          "indexed": false,
          "internalType": "uint256",
          "name": "amountPerWinner",
          "type": "uint256"
        },
        {
          "indexed": false,
          "internalType": "uint256",
          "name": "round",
          "type": "uint256"
        }
      ],
      "name": "WinnersPaid",
      "type": "event"
    },
    {
      "inputs": [],
      "name": "EXTENSION_STEP",
      "outputs": [
        {
          "internalType": "uint256",
          "name": "",
          "type": "uint256"
        }
      ],
      "stateMutability": "view",
      "type": "function"
    },
    {
      "inputs": [],
      "name": "EXTENSION_ZONE_START",
      "outputs": [
        {
          "internalType": "uint256",
          "name": "",
          "type": "uint256"
        }
      ],
      "stateMutability": "view",
      "type": "function"
    },
    {
      "inputs": [],
      "name": "MAX_DURATION",
      "outputs": [
        {
          "internalType": "uint256",
          "name": "",
          "type": "uint256"
        }
      ],
      "stateMutability": "view",
      "type": "function"
    },
    {
      "inputs": [
        {
          "internalType": "uint256",
          "name": "",
          "type": "uint256"
        }
      ],
      "name": "allTransactions",
      "outputs": [
        {
          "internalType": "address",
          "name": "player",
          "type": "address"
        },
        {
          "internalType": "uint256",
          "name": "amount",
          "type": "uint256"
        },
        {
          "internalType": "uint256",
          "name": "timestamp",
          "type": "uint256"
        },
        {
          "internalType": "uint256",
          "name": "round",
          "type": "uint256"
        }
      ],
      "stateMutability": "view",
      "type": "function"
    },
    {
      "inputs": [],
      "name": "currentRound",
      "outputs": [
        {
          "internalType": "uint256",
          "name": "",
          "type": "uint256"
        }
      ],
      "stateMutability": "view",
      "type": "function"
    },
    {
      "inputs": [],
      "name": "endTime",
      "outputs": [
        {
          "internalType": "uint256",
          "name": "",
          "type": "uint256"
        }
      ],
      "stateMutability": "view",
      "type": "function"
    },
    {
      "inputs": [],
      "name": "feePercentage",
      "outputs": [
        {
          "internalType": "uint256",
          "name": "",
          "type": "uint256"
        }
      ],
      "stateMutability": "view",
      "type": "function"
    },
    {
      "inputs": [],
      "name": "getAllTransactions",
      "outputs": [
        {
          "components": [
            {
              "internalType": "address",
              "name": "player",
              "type": "address"
            },
            {
              "internalType": "uint256",
              "name": "amount",
              "type": "uint256"
            },
            {
              "internalType": "uint256",
              "name": "timestamp",
              "type": "uint256"
            },
            {
              "internalType": "uint256",
              "name": "round",
              "type": "uint256"
            }
          ],
          "internalType": "struct Jackpot.Transaction[]",
          "name": "",
          "type": "tuple[]"
        }
      ],
      "stateMutability": "view",
      "type": "function"
    },
    {
      "inputs": [],
      "name": "getCurrentRoundTransactions",
      "outputs": [
        {
          "components": [
            {
              "internalType": "address",
              "name": "player",
              "type": "address"
            },
            {
              "internalType": "uint256",
              "name": "amount",
              "type": "uint256"
            },
            {
              "internalType": "uint256",
              "name": "timestamp",
              "type": "uint256"
            },
            {
              "internalType": "uint256",
              "name": "round",
              "type": "uint256"
            }
          ],
          "internalType": "struct Jackpot.Transaction[]",
          "name": "",
          "type": "tuple[]"
        }
      ],
      "stateMutability": "view",
      "type": "function"
    },
    {
      "inputs": [],
      "name": "getGameState",
      "outputs": [
        {
          "internalType": "uint256",
          "name": "timeLeft",
          "type": "uint256"
        },
        {
          "internalType": "address[]",
          "name": "players",
          "type": "address[]"
        },
        {
          "internalType": "uint256",
          "name": "jackpot",
          "type": "uint256"
        },
        {
          "internalType": "uint256",
          "name": "currentEndTime",
          "type": "uint256"
        },
        {
          "internalType": "uint256",
          "name": "round",
          "type": "uint256"
        }
      ],
      "stateMutability": "view",
      "type": "function"
    },
    {
      "inputs": [
        {
          "internalType": "uint256",
          "name": "",
          "type": "uint256"
        }
      ],
      "name": "last5Players",
      "outputs": [
        {
          "internalType": "address",
          "name": "",
          "type": "address"
        }
      ],
      "stateMutability": "view",
      "type": "function"
    },
    {
      "inputs": [],
      "name": "owner",
      "outputs": [
        {
          "internalType": "address",
          "name": "",
          "type": "address"
        }
      ],
      "stateMutability": "view",
      "type": "function"
    },
    {
      "inputs": [
        {
          "internalType": "uint256",
          "name": "newFeePercentage",
          "type": "uint256"
        }
      ],
      "name": "setFeePercentage",
      "outputs": [],
      "stateMutability": "nonpayable",
      "type": "function"
    },
    {
      "inputs": [],
      "name": "startTime",
      "outputs": [
        {
          "internalType": "uint256",
          "name": "",
          "type": "uint256"
        }
      ],
      "stateMutability": "view",
      "type": "function"
    },
    {
      "inputs": [],
      "name": "triggerPayoutAndRestart",
      "outputs": [],
      "stateMutability": "nonpayable",
      "type": "function"
    },
    {
      "stateMutability": "payable",
      "type": "receive"
    }
  ],
  "bytecode": "0x6080604052348015600f57600080fd5b5033600360006101000a81548173ffffffffffffffffffffffffffffffffffffffff021916908373ffffffffffffffffffffffffffffffffffffffff1602179055506103e86004819055506001600281905550600080819055506000600181905550611b54806100806000396000f3fe6080604052600436106100ec5760003560e01c80637ed68f131161008a578063ae06c1b711610059578063ae06c1b714610510578063b1724b4614610539578063b7d0628b14610564578063d7ff07141461059357610334565b80637ed68f13146104645780638a19c8bc1461048f5780638da5cb5b146104ba578063a001ecdd146104e557610334565b80633197cbb6116100c65780633197cbb6146103cc5780634f5aadf0146103f7578063658ec11a1461042257806378e979251461043957610334565b8063126312181461033957806327506f53146103645780632cd16b281461038f57610334565b366103345760003411610134576040517f08c379a000000000000000000000000000000000000000000000000000000000815260040161012b90611318565b60405180910390fd5b6000600154036101b4576101466105d3565b61014f33610641565b3373ffffffffffffffffffffffffffffffffffffffff167f36af321ec8d3c75236829c5317affd40ddb308863a1236d2d277a4025cccee1e6001543460025460405161019d93929190611351565b60405180910390a26101af33346107bc565b610332565b60015442111561023c576101c661088b565b6101ce6105d3565b6101d733610641565b3373ffffffffffffffffffffffffffffffffffffffff167f36af321ec8d3c75236829c5317affd40ddb308863a1236d2d277a4025cccee1e6001543460025460405161022593929190611351565b60405180910390a261023733346107bc565b610332565b61024533610641565b61021c60005461025591906113b7565b42106102d1576000600360015461026c91906113b7565b9050600a600361027c91906113eb565b61025860005461028c91906113b7565b61029691906113b7565b8111156102c857600a60036102ab91906113eb565b6102586000546102bb91906113b7565b6102c591906113b7565b90505b80600181905550505b3373ffffffffffffffffffffffffffffffffffffffff167f36af321ec8d3c75236829c5317affd40ddb308863a1236d2d277a4025cccee1e6001543460025460405161031f93929190611351565b60405180910390a261033133346107bc565b5b005b600080fd5b34801561034557600080fd5b5061034e610c49565b60405161035b9190611581565b60405180910390f35b34801561037057600080fd5b50610379610e23565b6040516103869190611581565b60405180910390f35b34801561039b57600080fd5b506103b660048036038101906103b191906115d4565b610ef6565b6040516103c39190611610565b60405180910390f35b3480156103d857600080fd5b506103e1610f35565b6040516103ee919061162b565b60405180910390f35b34801561040357600080fd5b5061040c610f3b565b604051610419919061162b565b60405180910390f35b34801561042e57600080fd5b50610437610f40565b005b34801561044557600080fd5b5061044e610fac565b60405161045b919061162b565b60405180910390f35b34801561047057600080fd5b50610479610fb2565b604051610486919061162b565b60405180910390f35b34801561049b57600080fd5b506104a4610fb8565b6040516104b1919061162b565b60405180910390f35b3480156104c657600080fd5b506104cf610fbe565b6040516104dc9190611610565b60405180910390f35b3480156104f157600080fd5b506104fa610fe4565b604051610507919061162b565b60405180910390f35b34801561051c57600080fd5b50610537600480360381019061053291906115d4565b610fea565b005b34801561054557600080fd5b5061054e61110a565b60405161055b919061162b565b60405180910390f35b34801561057057600080fd5b50610579611110565b60405161058a9594939291906116f5565b60405180910390f35b34801561059f57600080fd5b506105ba60048036038101906105b591906115d4565b6111df565b6040516105ca949392919061174f565b60405180910390f35b426000819055506102586000546105ea91906113b7565b600181905550600560006105fe919061123f565b7fa359b664a68acd8839e42112eb50eff3408165e15074fde89ddb58a0db2e691d60025460005460015460405161063793929190611351565b60405180910390a1565b60058080549050106107565760005b600481101561070d57600560018261066891906113b7565b8154811061067957610678611794565b5b9060005260206000200160009054906101000a900473ffffffffffffffffffffffffffffffffffffffff16600582815481106106b8576106b7611794565b5b9060005260206000200160006101000a81548173ffffffffffffffffffffffffffffffffffffffff021916908373ffffffffffffffffffffffffffffffffffffffff1602179055508080600101915050610650565b5060058054806107205761071f6117c3565b5b6001900381819060005260206000200160006101000a81549073ffffffffffffffffffffffffffffffffffffffff021916905590555b6005819080600181540180825580915050600190039060005260206000200160009091909190916101000a81548173ffffffffffffffffffffffffffffffffffffffff021916908373ffffffffffffffffffffffffffffffffffffffff16021790555050565b600660405180608001604052808473ffffffffffffffffffffffffffffffffffffffff168152602001838152602001428152602001600254815250908060018154018082558091505060019003906000526020600020906004020160009091909190915060008201518160000160006101000a81548173ffffffffffffffffffffffffffffffffffffffff021916908373ffffffffffffffffffffffffffffffffffffffff16021790555060208201518160010155604082015181600201556060820151816003015550505050565b60004790506000348261089e91906117f2565b9050600060058054905090506000811180156108ba5750600082115b15610c2c576000612710600454846108d291906113eb565b6108dc9190611855565b9050600081846108ec91906117f2565b90506000821115610a02576000600360009054906101000a900473ffffffffffffffffffffffffffffffffffffffff1673ffffffffffffffffffffffffffffffffffffffff168360405161093f906118b7565b60006040518083038185875af1925050503d806000811461097c576040519150601f19603f3d011682016040523d82523d6000602084013e610981565b606091505b505090508015610a0057600360009054906101000a900473ffffffffffffffffffffffffffffffffffffffff1673ffffffffffffffffffffffffffffffffffffffff167f108516ddcf5ba43cea6bb2cd5ff6d59ac196c1c86ccb9178332b9dd72d1ca561846002546040516109f79291906118cc565b60405180910390a25b505b60008382610a109190611855565b905060008467ffffffffffffffff811115610a2e57610a2d6118f5565b5b604051908082528060200260200182016040528015610a5c5781602001602082028036833780820191505090505b50905060005b85811015610bae5760058181548110610a7e57610a7d611794565b5b9060005260206000200160009054906101000a900473ffffffffffffffffffffffffffffffffffffffff16828281518110610abc57610abb611794565b5b602002602001019073ffffffffffffffffffffffffffffffffffffffff16908173ffffffffffffffffffffffffffffffffffffffff1681525050600060058281548110610b0c57610b0b611794565b5b9060005260206000200160009054906101000a900473ffffffffffffffffffffffffffffffffffffffff1673ffffffffffffffffffffffffffffffffffffffff1684604051610b5a906118b7565b60006040518083038185875af1925050503d8060008114610b97576040519150601f19603f3d011682016040523d82523d6000602084013e610b9c565b606091505b50509050508080600101915050610a62565b507f8e3ec98b9615a9bd8e08e5d4563502a274b1c35c02fb12b1e71ad210a81261c98183600254604051610be493929190611924565b60405180910390a17fa0791cc76d386aff9fcb524828b48baf9d36bab670c802bba70367fdb6aa892560025482604051610c1f929190611962565b60405180910390a1505050505b60026000815480929190610c3f90611992565b9190505550505050565b60606000805b600680549050811015610ca65760025460068281548110610c7357610c72611794565b5b90600052602060002090600402016003015403610c99578180610c9590611992565b9250505b8080600101915050610c4f565b5060008167ffffffffffffffff811115610cc357610cc26118f5565b5b604051908082528060200260200182016040528015610cfc57816020015b610ce9611260565b815260200190600190039081610ce15790505b5090506000805b600680549050811015610e195760025460068281548110610d2757610d26611794565b5b90600052602060002090600402016003015403610e0c5760068181548110610d5257610d51611794565b5b90600052602060002090600402016040518060800160405290816000820160009054906101000a900473ffffffffffffffffffffffffffffffffffffffff1673ffffffffffffffffffffffffffffffffffffffff1673ffffffffffffffffffffffffffffffffffffffff1681526020016001820154815260200160028201548152602001600382015481525050838381518110610df257610df1611794565b5b60200260200101819052508180610e0890611992565b9250505b8080600101915050610d03565b5081935050505090565b60606006805480602002602001604051908101604052809291908181526020016000905b82821015610eed57838290600052602060002090600402016040518060800160405290816000820160009054906101000a900473ffffffffffffffffffffffffffffffffffffffff1673ffffffffffffffffffffffffffffffffffffffff1673ffffffffffffffffffffffffffffffffffffffff168152602001600182015481526020016002820154815260200160038201548152505081526020019060010190610e47565b50505050905090565b60058181548110610f0657600080fd5b906000526020600020016000915054906101000a900473ffffffffffffffffffffffffffffffffffffffff1681565b60015481565b600381565b60015442118015610f545750600060015414155b610f93576040517f08c379a0000000000000000000000000000000000000000000000000000000008152600401610f8a90611a26565b60405180910390fd5b610f9b61088b565b600060018190555060008081905550565b60005481565b61021c81565b60025481565b600360009054906101000a900473ffffffffffffffffffffffffffffffffffffffff1681565b60045481565b600360009054906101000a900473ffffffffffffffffffffffffffffffffffffffff1673ffffffffffffffffffffffffffffffffffffffff163373ffffffffffffffffffffffffffffffffffffffff161461107a576040517f08c379a000000000000000000000000000000000000000000000000000000000815260040161107190611a92565b60405180910390fd5b6107d08111156110bf576040517f08c379a00000000000000000000000000000000000000000000000000000000081526004016110b690611afe565b60405180910390fd5b60006004549050816004819055507fb27c12a91635e11c22bffa7bd8e0a8735da52b94aaefd7f249776c7590ba789481836040516110fe9291906118cc565b60405180910390a15050565b61025881565b600060606000806000600154421061112b576000945061113c565b4260015461113991906117f2565b94505b84600547600154600254838054806020026020016040519081016040528092919081815260200182805480156111c757602002820191906000526020600020905b8160009054906101000a900473ffffffffffffffffffffffffffffffffffffffff1673ffffffffffffffffffffffffffffffffffffffff168152602001906001019080831161117d575b50505050509350945094509450945094509091929394565b600681815481106111ef57600080fd5b90600052602060002090600402016000915090508060000160009054906101000a900473ffffffffffffffffffffffffffffffffffffffff16908060010154908060020154908060030154905084565b508054600082559060005260206000209081019061125d919061129e565b50565b6040518060800160405280600073ffffffffffffffffffffffffffffffffffffffff1681526020016000815260200160008152602001600081525090565b5b808211156112b757600081600090555060010161129f565b5090565b600082825260208201905092915050565b7f4d7573742073656e642045544800000000000000000000000000000000000000600082015250565b6000611302600d836112bb565b915061130d826112cc565b602082019050919050565b60006020820190508181036000830152611331816112f5565b9050919050565b6000819050919050565b61134b81611338565b82525050565b60006060820190506113666000830186611342565b6113736020830185611342565b6113806040830184611342565b949350505050565b7f4e487b7100000000000000000000000000000000000000000000000000000000600052601160045260246000fd5b60006113c282611338565b91506113cd83611338565b92508282019050808211156113e5576113e4611388565b5b92915050565b60006113f682611338565b915061140183611338565b925082820261140f81611338565b9150828204841483151761142657611425611388565b5b5092915050565b600081519050919050565b600082825260208201905092915050565b6000819050602082019050919050565b600073ffffffffffffffffffffffffffffffffffffffff82169050919050565b600061148482611459565b9050919050565b61149481611479565b82525050565b6114a381611338565b82525050565b6080820160008201516114bf600085018261148b565b5060208201516114d2602085018261149a565b5060408201516114e5604085018261149a565b5060608201516114f8606085018261149a565b50505050565b600061150a83836114a9565b60808301905092915050565b6000602082019050919050565b600061152e8261142d565b6115388185611438565b935061154383611449565b8060005b8381101561157457815161155b88826114fe565b975061156683611516565b925050600181019050611547565b5085935050505092915050565b6000602082019050818103600083015261159b8184611523565b905092915050565b600080fd5b6115b181611338565b81146115bc57600080fd5b50565b6000813590506115ce816115a8565b92915050565b6000602082840312156115ea576115e96115a3565b5b60006115f8848285016115bf565b91505092915050565b61160a81611479565b82525050565b60006020820190506116256000830184611601565b92915050565b60006020820190506116406000830184611342565b92915050565b600081519050919050565b600082825260208201905092915050565b6000819050602082019050919050565b600061167e838361148b565b60208301905092915050565b6000602082019050919050565b60006116a282611646565b6116ac8185611651565b93506116b783611662565b8060005b838110156116e85781516116cf8882611672565b97506116da8361168a565b9250506001810190506116bb565b5085935050505092915050565b600060a08201905061170a6000830188611342565b818103602083015261171c8187611697565b905061172b6040830186611342565b6117386060830185611342565b6117456080830184611342565b9695505050505050565b60006080820190506117646000830187611601565b6117716020830186611342565b61177e6040830185611342565b61178b6060830184611342565b95945050505050565b7f4e487b7100000000000000000000000000000000000000000000000000000000600052603260045260246000fd5b7f4e487b7100000000000000000000000000000000000000000000000000000000600052603160045260246000fd5b60006117fd82611338565b915061180883611338565b92508282039050818111156118205761181f611388565b5b92915050565b7f4e487b7100000000000000000000000000000000000000000000000000000000600052601260045260246000fd5b600061186082611338565b915061186b83611338565b92508261187b5761187a611826565b5b828204905092915050565b600081905092915050565b50565b60006118a1600083611886565b91506118ac82611891565b600082019050919050565b60006118c282611894565b9150819050919050565b60006040820190506118e16000830185611342565b6118ee6020830184611342565b9392505050565b7f4e487b7100000000000000000000000000000000000000000000000000000000600052604160045260246000fd5b6000606082019050818103600083015261193e8186611697565b905061194d6020830185611342565b61195a6040830184611342565b949350505050565b60006040820190506119776000830185611342565b81810360208301526119898184611697565b90509392505050565b600061199d82611338565b91507fffffffffffffffffffffffffffffffffffffffffffffffffffffffffffffffff82036119cf576119ce611388565b5b600182019050919050565b7f526f756e64206e6f7420656e646564206f72206e6f7420616374697665000000600082015250565b6000611a10601d836112bb565b9150611a1b826119da565b602082019050919050565b60006020820190508181036000830152611a3f81611a03565b9050919050565b7f4f6e6c79206f776e65722063616e2063616c6c20746869730000000000000000600082015250565b6000611a7c6018836112bb565b9150611a8782611a46565b602082019050919050565b60006020820190508181036000830152611aab81611a6f565b9050919050565b7f4665652063616e6e6f7420657863656564203230250000000000000000000000600082015250565b6000611ae86015836112bb565b9150611af382611ab2565b602082019050919050565b60006020820190508181036000830152611b1781611adb565b905091905056fea2646970667358221220a4d2c81cad8611e6cd9b12dbb90c878ce6ab32c13697409d4494a577e2b913c964736f6c634300081b0033",
  "linkReferences": {},
  "deployedLinkReferences": {}
}