{
  "_format": "hh-sol-artifact-1",
  "contractName": "Jackpot",
  "sourceName": "contracts/Jackpot.sol",
  "abi": [
    {
      "inputs": [],
      "stateMutability": "nonpayable",
      "type": "constructor"
    },
    {
      "anonymous": false,
      "inputs": [
        {
          "indexed": true,
          "internalType": "address",
          "name": "player",
          "type": "address"
        },
        {
          "indexed": false,
          "internalType": "uint256",
          "name": "newEndTime",
          "type": "uint256"
        },
        {
          "indexed": false,
          "internalType": "uint256",
          "name": "amount",
          "type": "uint256"
        }
      ],
      "name": "Deposit",
      "type": "event"
    },
    {
      "anonymous": false,
      "inputs": [
        {
          "indexed": false,
          "internalType": "uint256",
          "name": "startTime",
          "type": "uint256"
        },
        {
          "indexed": false,
          "internalType": "uint256",
          "name": "endTime",
          "type": "uint256"
        }
      ],
      "name": "GameStarted",
      "type": "event"
    },
    {
      "anonymous": false,
      "inputs": [
        {
          "indexed": false,
          "internalType": "address[]",
          "name": "winners",
          "type": "address[]"
        },
        {
          "indexed": false,
          "internalType": "uint256",
          "name": "amountPerWinner",
          "type": "uint256"
        }
      ],
      "name": "WinnersPaid",
      "type": "event"
    },
    {
      "inputs": [],
      "name": "EXTENSION_STEP",
      "outputs": [
        {
          "internalType": "uint256",
          "name": "",
          "type": "uint256"
        }
      ],
      "stateMutability": "view",
      "type": "function"
    },
    {
      "inputs": [],
      "name": "EXTENSION_ZONE_START",
      "outputs": [
        {
          "internalType": "uint256",
          "name": "",
          "type": "uint256"
        }
      ],
      "stateMutability": "view",
      "type": "function"
    },
    {
      "inputs": [],
      "name": "MAX_DURATION",
      "outputs": [
        {
          "internalType": "uint256",
          "name": "",
          "type": "uint256"
        }
      ],
      "stateMutability": "view",
      "type": "function"
    },
    {
      "inputs": [],
      "name": "MIN_BET",
      "outputs": [
        {
          "internalType": "uint256",
          "name": "",
          "type": "uint256"
        }
      ],
      "stateMutability": "view",
      "type": "function"
    },
    {
      "inputs": [],
      "name": "endTime",
      "outputs": [
        {
          "internalType": "uint256",
          "name": "",
          "type": "uint256"
        }
      ],
      "stateMutability": "view",
      "type": "function"
    },
    {
      "inputs": [],
      "name": "gameEnded",
      "outputs": [
        {
          "internalType": "bool",
          "name": "",
          "type": "bool"
        }
      ],
      "stateMutability": "view",
      "type": "function"
    },
    {
      "inputs": [],
      "name": "getGameState",
      "outputs": [
        {
          "internalType": "uint256",
          "name": "timeLeft",
          "type": "uint256"
        },
        {
          "internalType": "address[]",
          "name": "players",
          "type": "address[]"
        },
        {
          "internalType": "uint256",
          "name": "jackpot",
          "type": "uint256"
        },
        {
          "internalType": "bool",
          "name": "isEnded",
          "type": "bool"
        },
        {
          "internalType": "uint256",
          "name": "currentEndTime",
          "type": "uint256"
        }
      ],
      "stateMutability": "view",
      "type": "function"
    },
    {
      "inputs": [
        {
          "internalType": "uint256",
          "name": "",
          "type": "uint256"
        }
      ],
      "name": "last5Players",
      "outputs": [
        {
          "internalType": "address",
          "name": "",
          "type": "address"
        }
      ],
      "stateMutability": "view",
      "type": "function"
    },
    {
      "inputs": [],
      "name": "pickWinner",
      "outputs": [],
      "stateMutability": "nonpayable",
      "type": "function"
    },
    {
      "inputs": [],
      "name": "startGame",
      "outputs": [],
      "stateMutability": "nonpayable",
      "type": "function"
    },
    {
      "inputs": [],
      "name": "startTime",
      "outputs": [
        {
          "internalType": "uint256",
          "name": "",
          "type": "uint256"
        }
      ],
      "stateMutability": "view",
      "type": "function"
    },
    {
      "inputs": [],
      "name": "touch",
      "outputs": [],
      "stateMutability": "payable",
      "type": "function"
    }
  ],
  "bytecode": "0x608060405234801561001057600080fd5b5061001f61002460201b60201c565b610264565b600360009054906101000a900460ff1680610040575060008054145b61007f576040517f08c379a00000000000000000000000000000000000000000000000000000000081526004016100769061019f565b60405180910390fd5b4260008190555061025860005461009691906101f8565b6001819055506000600360006101000a81548160ff021916908315150217905550600260006100c59190610104565b7fa2dfaa3573b86004ec9d4d4abe5068d942579c59da4da8cd0d9e45e71a393bc16000546001546040516100fa92919061023b565b60405180910390a1565b50805460008255906000526020600020908101906101229190610125565b50565b5b8082111561013e576000816000905550600101610126565b5090565b600082825260208201905092915050565b7f47616d6520616c72656164792072756e6e696e67000000000000000000000000600082015250565b6000610189601483610142565b915061019482610153565b602082019050919050565b600060208201905081810360008301526101b88161017c565b9050919050565b6000819050919050565b7f4e487b7100000000000000000000000000000000000000000000000000000000600052601160045260246000fd5b6000610203826101bf565b915061020e836101bf565b9250828201905080821115610226576102256101c9565b5b92915050565b610235816101bf565b82525050565b6000604082019050610250600083018561022c565b61025d602083018461022c565b9392505050565b611266806102736000396000f3fe6080604052600436106100a75760003560e01c806378e979251161006457806378e97925146101ac5780637ed68f13146101d7578063a55526db14610202578063b1724b461461020c578063b7d0628b14610237578063d65ab5f214610266576100a7565b80632cd16b28146100ac5780632f6fe396146100e95780633197cbb6146101145780634f5aadf01461013f5780635d495aea1461016a5780636540742f14610181575b600080fd5b3480156100b857600080fd5b506100d360048036038101906100ce9190610a4a565b61027d565b6040516100e09190610ab8565b60405180910390f35b3480156100f557600080fd5b506100fe6102bc565b60405161010b9190610aee565b60405180910390f35b34801561012057600080fd5b506101296102cf565b6040516101369190610b18565b60405180910390f35b34801561014b57600080fd5b506101546102d5565b6040516101619190610b18565b60405180910390f35b34801561017657600080fd5b5061017f6102da565b005b34801561018d57600080fd5b506101966104f5565b6040516101a39190610b18565b60405180910390f35b3480156101b857600080fd5b506101c16104fb565b6040516101ce9190610b18565b60405180910390f35b3480156101e357600080fd5b506101ec610501565b6040516101f99190610b18565b60405180910390f35b61020a610507565b005b34801561021857600080fd5b5061022161080f565b60405161022e9190610b18565b60405180910390f35b34801561024357600080fd5b5061024c610815565b60405161025d959493929190610bf1565b60405180910390f35b34801561027257600080fd5b5061027b6108f1565b005b6002818154811061028d57600080fd5b906000526020600020016000915054906101000a900473ffffffffffffffffffffffffffffffffffffffff1681565b600360009054906101000a900460ff1681565b60015481565b600381565b600360009054906101000a900460ff161561032a576040517f08c379a000000000000000000000000000000000000000000000000000000000815260040161032190610ca8565b60405180910390fd5b600154421161036e576040517f08c379a000000000000000000000000000000000000000000000000000000000815260040161036590610d14565b60405180910390fd5b6001600360006101000a81548160ff02191690831515021790555060004790506000600280549050905060008111156104f157600081836103af9190610d92565b905060005b828110156104b4576000600282815481106103d2576103d1610dc3565b5b9060005260206000200160009054906101000a900473ffffffffffffffffffffffffffffffffffffffff1673ffffffffffffffffffffffffffffffffffffffff168360405161042090610e23565b60006040518083038185875af1925050503d806000811461045d576040519150601f19603f3d011682016040523d82523d6000602084013e610462565b606091505b50509050806104a6576040517f08c379a000000000000000000000000000000000000000000000000000000000815260040161049d90610e84565b60405180910390fd5b5080806001019150506103b4565b507f186b9a6deb394879f9dd9effeb103e79d05e23b226cfe0b1c122af9d33da48386002826040516104e7929190610f90565b60405180910390a1505b5050565b61c35081565b60005481565b61021c81565b600360009054906101000a900460ff1615610557576040517f08c379a000000000000000000000000000000000000000000000000000000000815260040161054e9061100c565b60405180910390fd5b60015442111561059c576040517f08c379a000000000000000000000000000000000000000000000000000000000815260040161059390611078565b60405180910390fd5b61c3503410156105e1576040517f08c379a00000000000000000000000000000000000000000000000000000000081526004016105d8906110e4565b60405180910390fd5b6005600280549050106106f75760005b60048110156106ae5760026001826106099190611104565b8154811061061a57610619610dc3565b5b9060005260206000200160009054906101000a900473ffffffffffffffffffffffffffffffffffffffff166002828154811061065957610658610dc3565b5b9060005260206000200160006101000a81548173ffffffffffffffffffffffffffffffffffffffff021916908373ffffffffffffffffffffffffffffffffffffffff16021790555080806001019150506105f1565b5060028054806106c1576106c0611138565b5b6001900381819060005260206000200160006101000a81549073ffffffffffffffffffffffffffffffffffffffff021916905590555b6002339080600181540180825580915050600190039060005260206000200160009091909190916101000a81548173ffffffffffffffffffffffffffffffffffffffff021916908373ffffffffffffffffffffffffffffffffffffffff16021790555061021c60005461076a9190611104565b42106107bb576003600160008282546107839190611104565b9250508190555061025860005461079a9190611104565b60015411156107ba576102586000546107b39190611104565b6001819055505b5b3373ffffffffffffffffffffffffffffffffffffffff167f90890809c654f11d6e72a28fa60149770a0d11ec6c92319d6ceb2bb0a4ea1a1560015434604051610805929190611167565b60405180910390a2565b61025881565b60006060600080600060015442106108305760009450610841565b4260015461083e9190611190565b94505b84600247600360009054906101000a900460ff16600154838054806020026020016040519081016040528092919081815260200182805480156108d957602002820191906000526020600020905b8160009054906101000a900473ffffffffffffffffffffffffffffffffffffffff1673ffffffffffffffffffffffffffffffffffffffff168152602001906001019080831161088f575b50505050509350945094509450945094509091929394565b600360009054906101000a900460ff168061090d575060008054145b61094c576040517f08c379a000000000000000000000000000000000000000000000000000000000815260040161094390611210565b60405180910390fd5b426000819055506102586000546109639190611104565b6001819055506000600360006101000a81548160ff0219169083151502179055506002600061099291906109d1565b7fa2dfaa3573b86004ec9d4d4abe5068d942579c59da4da8cd0d9e45e71a393bc16000546001546040516109c7929190611167565b60405180910390a1565b50805460008255906000526020600020908101906109ef91906109f2565b50565b5b80821115610a0b5760008160009055506001016109f3565b5090565b600080fd5b6000819050919050565b610a2781610a14565b8114610a3257600080fd5b50565b600081359050610a4481610a1e565b92915050565b600060208284031215610a6057610a5f610a0f565b5b6000610a6e84828501610a35565b91505092915050565b600073ffffffffffffffffffffffffffffffffffffffff82169050919050565b6000610aa282610a77565b9050919050565b610ab281610a97565b82525050565b6000602082019050610acd6000830184610aa9565b92915050565b60008115159050919050565b610ae881610ad3565b82525050565b6000602082019050610b036000830184610adf565b92915050565b610b1281610a14565b82525050565b6000602082019050610b2d6000830184610b09565b92915050565b600081519050919050565b600082825260208201905092915050565b6000819050602082019050919050565b610b6881610a97565b82525050565b6000610b7a8383610b5f565b60208301905092915050565b6000602082019050919050565b6000610b9e82610b33565b610ba88185610b3e565b9350610bb383610b4f565b8060005b83811015610be4578151610bcb8882610b6e565b9750610bd683610b86565b925050600181019050610bb7565b5085935050505092915050565b600060a082019050610c066000830188610b09565b8181036020830152610c188187610b93565b9050610c276040830186610b09565b610c346060830185610adf565b610c416080830184610b09565b9695505050505050565b600082825260208201905092915050565b7f47616d6520616c726561647920656e6465640000000000000000000000000000600082015250565b6000610c92601283610c4b565b9150610c9d82610c5c565b602082019050919050565b60006020820190508181036000830152610cc181610c85565b9050919050565b7f47616d65206e6f74206f76657220796574000000000000000000000000000000600082015250565b6000610cfe601183610c4b565b9150610d0982610cc8565b602082019050919050565b60006020820190508181036000830152610d2d81610cf1565b9050919050565b7f4e487b7100000000000000000000000000000000000000000000000000000000600052601260045260246000fd5b7f4e487b7100000000000000000000000000000000000000000000000000000000600052601160045260246000fd5b6000610d9d82610a14565b9150610da883610a14565b925082610db857610db7610d34565b5b828204905092915050565b7f4e487b7100000000000000000000000000000000000000000000000000000000600052603260045260246000fd5b600081905092915050565b50565b6000610e0d600083610df2565b9150610e1882610dfd565b600082019050919050565b6000610e2e82610e00565b9150819050919050565b7f4661696c656420746f2073656e64204574686572000000000000000000000000600082015250565b6000610e6e601483610c4b565b9150610e7982610e38565b602082019050919050565b60006020820190508181036000830152610e9d81610e61565b9050919050565b600081549050919050565b60008190508160005260206000209050919050565b60008160001c9050919050565b600073ffffffffffffffffffffffffffffffffffffffff82169050919050565b6000610f04610eff83610ec4565b610ed1565b9050919050565b6000610f178254610ef1565b9050919050565b6000600182019050919050565b6000610f3682610ea4565b610f408185610b3e565b9350610f4b83610eaf565b8060005b83811015610f8357610f6082610f0b565b610f6a8882610b6e565b9750610f7583610f1e565b925050600181019050610f4f565b5085935050505092915050565b60006040820190508181036000830152610faa8185610f2b565b9050610fb96020830184610b09565b9392505050565b7f47616d6520656e64656400000000000000000000000000000000000000000000600082015250565b6000610ff6600a83610c4b565b915061100182610fc0565b602082019050919050565b6000602082019050818103600083015261102581610fe9565b9050919050565b7f54696d6520697320757000000000000000000000000000000000000000000000600082015250565b6000611062600a83610c4b565b915061106d8261102c565b602082019050919050565b6000602082019050818103600083015261109181611055565b9050919050565b7f42657420746f6f20736d616c6c00000000000000000000000000000000000000600082015250565b60006110ce600d83610c4b565b91506110d982611098565b602082019050919050565b600060208201905081810360008301526110fd816110c1565b9050919050565b600061110f82610a14565b915061111a83610a14565b925082820190508082111561113257611131610d63565b5b92915050565b7f4e487b7100000000000000000000000000000000000000000000000000000000600052603160045260246000fd5b600060408201905061117c6000830185610b09565b6111896020830184610b09565b9392505050565b600061119b82610a14565b91506111a683610a14565b92508282039050818111156111be576111bd610d63565b5b92915050565b7f47616d6520616c72656164792072756e6e696e67000000000000000000000000600082015250565b60006111fa601483610c4b565b9150611205826111c4565b602082019050919050565b60006020820190508181036000830152611229816111ed565b905091905056fea2646970667358221220deaafdde063119187014e8a5cc34ad5489791e7dca9fb6c95b0eb4aad4e2ea3d64736f6c634300081b0033",
  "linkReferences": {},
  "deployedLinkReferences": {}
}